:100000000C94A8030C94E0030C94E0030C94E0031C
:100010000C94E0030C94E0030C94E0030C94E003D4
:100020000C94E0030C94E0030C94920E0C94D61400
:100030000C94702C0C94E0030C94E0030C94E003FB
:100040000C94E0030C94E0030C94E0030C94E003A4
:100050000C94E0030C946B0F0C94E0030C94E003FD
:100060000C94E0030C94E0030C94E0030C94E00384
:100070000C94E0030C94E0030C94E0030C94E00374
:100080000C94E0030C94E0030C94E0030C94E00364
:100090000C94E0030C94E0030C94E0030C94E00354
:1000A0000C94E0030C94E0030C94E0030501098038
:1000B000A101850319012AB700150126B700950192
:1000C00075108100C0050C0901A101850419012AE0
:1000D000A002150126A002950175108100C00660DE
:1000E000FF0961A1010962150026FF00952075082E
:1000F00081020963150026FF00952075089102C052
:1001000005010906A101050719E029E715002501E8
:10011000950875018102950175088101050719008F
:1001200029FF150026FF00950675088100050819AE
:10013000012905950575019102950175039101C08D
:1001400000000000000000000000000000000000AF
:10015000000000000000000000000000000000009F
:10016000000000007E0F00D4FFFFFFC700000078F2
:1001700000000000000000002A2B28000000000002
:100180000000000000000000000000290000000046
:100190002C1E3420212224342627252E362D3738B4
:1001A000271E1F202122232425263333362E3738BD
:1001B0001F0405060708090A0B0C0D0E0F1011127B
:1001C000131415161718191A1B1C1D2F3130232D47
:1001D000350405060708090A0B0C0D0E0F10111245
:1001E000131415161718191A1B1C1D2F3130354CF6
:1001F00000DA0281FFD9F1DB20A4A62EAF00A0C057
:1002000000A1C800AED580A81FD300408D142000E7
:100210000000000000000000040000000705FD01D0
:1002200001F10D0D0D0911E1020408E000000000CC
:100230000000000000000000006C502000405F4003
:10024000404F50505048662130180C030000000009
:100250000000000000000000003C207CFCFEFEFED0
:10026000FE7EE272FBFFFFFFFFC000000000000007
:1002700000000000000000000000000007FFFFFF7A
:10028000FF000000FFFFFFFFFFFFC00000000000B5
:10029000000000000000000000F8000000013F3FE7
:1002A0003F3830181B1F1F1F1F1F0F0000000000CA
:1002B0000000000000000000001F00307CFEFEFF78
:1002C000E7C7C78700000000000000000000000032
:1002D00000000000000000000000007870707179DC
:1002E000793F3F1F0F2000000000000000000000C9
:1002F0000000000000C0FCFCFCFCFCFC7C7C7C3CA6
:100300003C3C3E3E3E7E7E7E7EFE000000000000C5
:100310000000000000FFFFFFFF0F010000000000D1
:100320000070F0F0E0E0C080FCFF00000000000082
:100330000000000000FFFFFFFFFEF0E0C0C08000F3
:1003400000000001010103070F3F00000000000052
:100350000000000000FFFFFFFF7F03010307070706
:10036000060000000000000080E000000000000027
:1003700000000000001F1F1F1FDFFEFEFEECECEC64
:10038000ECECCCCCCEC6060707070000000000004E
:100390000000000000000000C0FFFFFFFFFFCF478C
:1003A0007777070FFF0F000000000000000000003B
:1003B00000000000000000001F3FFFFFFFFFE0E61D
:1003C000EFF7E0E0FF000000000000000000000088
:1003D00000000000000000000000010101C3C3E3B1
:1003E000FBC3C30303000000000000000000000086
:1003F00000000000000000000000000000003C7F42
:100400006300000000000000000000000000000089
:10041000FD377A585A000004E6D6B446020021019E
:1004200016000000742FE5A3E002F2011A5D003D02
:10043000888986D3DC0AE842C324925842588FD870
:10044000E75CA0D2616E26E888019A676C7887BC69
:100450008D3709EA0E1459A53C79858BB59E1F5836
:10046000492DD9783875DD1B2F81077F12999F3E62
:10047000E8A9457C94B09649851531DBF01EE6FB72
:10048000F04F39B6E4BF43E1546EE31AAB08AE3621
:100490009BBF4540AE6A16A7101F68C17F46C90DB5
:1004A000D9C483F0231BB4EED518ACF5788E39D3BC
:1004B000AE5E6399A67EF35F942449D9A07DF1DAFC
:1004C000E1D6E999B0009C840B8FF5E587FE87970C
:1004D000866D6162399C04E0FB6260933FEE3FDD14
:1004E000E3FFE1F23111B56956312F04C71BF389DF
:1004F000059A28CC7F5B90695B9E1881C00CBCEB91
:100500007D6EC6B0C1141D3D290E9AFA0280B2E874
:10051000DED05438DF3AD3BB3176587A010D7245BC
:100520000C45830BBB5A9BB840DC49B940F01D6DAC
:10053000A6450180CB40C9F31B63F1598BB603EF8D
:1005400050C3463127B028B70000000031A9830806
:100550005921165D0001B602F3050000770C1EE775
:10056000B1C467FB020000000004595AAA00A900A8
:100570004E004B0029001E001F0020002100220019
:100580002300A8002B0014001A0008001500170013
:100590001C001800E10004001600070009000A0012
:1005A0000B000D000151E0002C00E60019000500D1
:1005B00011000000005C3A003B003C003D003E00A2
:1005C0003F004000010043004400450001000100DD
:1005D0000100010001000100010001000100010013
:1005E0000100010001000100010001000100010003
:1005F00001000000010001003606480C7A0C0000E2
:10060000020002003206480C7A0C000003000100D0
:100610003706480C7A0C0000040002001C06480C47
:100620007A0CF306050001003806480C7A0C00002D
:10063000060002001E06480C7A0C000007000200AB
:100640003406480C7A0C0000080001003906480CFA
:100650007A0C0000120002003A06480C7A0C0000E6
:10066000130002003C06480C7A0C00001400010044
:100670003E06480C7A0C00001500000000007006D1
:100680008816000000AF00AE09025B00030100A065
:10069000FA09040000010301010009211101000110
:1006A000224000070581030800010904010002033C
:1006B0000000000921110100012222000705820328
:1006C00020000107050303200001090402000103C3
:1006D00000000009211101000122320007058403F6
:1006E00020000112010002000000089EDC55D1012B
:1006F00000010203011C037600690061006C003AEE
:10070000006600360034006300320062003300638C
:10071000000000240344006900730073006100744A
:100720000069007300660061006300740069006F77
:10073000006E0033003000000010034400430050FE
:10074000004500640069007400000004030904000F
:1007500011241FBECFEFDAE0DEBFCDBF04B603FE2B
:1007600018C080911D0790911E07A0911F07B0919E
:1007700020078730904BA740B04B59F410921D07CB
:1007800010921E0710921F0710922007E0E0F8E376
:10079000099511E0A0E0B1E0ECEFFCE602C00590A5
:1007A0000D92AA38B107D9F727E0AAE8B1E001C055
:1007B0001D92AD31B207E1F70E94972C0C9451368F
:1007C0000C940000E8EDF0E080818E7F8083109231
:1007D000E2001092DA001092E100A0EEB0E08C91FD
:1007E00081608C9380818F77808319BCA7EDB0E006
:1007F0008C918E7F8C9380818F7E808310920307F3
:1008000008952091E4003091E50095E6A90120913A
:10081000EC00822F817020FF06C08091E80080FFED
:1008200006C080E008952091E80022FD1AC0809162
:100830001007882389F0853089F08091EB0085FDD1
:100840000FC02091E4003091E50042175307F9F200
:100850009150E1F684E0089582E0089583E00895E0
:1008600081E00895EF92FF920F931F93CF937C0145
:100870008B010E940104C82F811117C08091E800EC
:1008800085FD0BC08091E8008E778093E8000E9480
:100890000104882399F3C82F08C0F70181917F01D3
:1008A0008093F1000150110949F78C2FCF911F91CE
:1008B0000F91FF90EF9008958091120787FF13C06A
:1008C0008091E80082FF06C08091E8008B778093DA
:1008D000E80004C0809110078111F2CF0895809143
:1008E00010078823D9F38091E80080FFF8CF80912A
:1008F000E8008E77ECCF982F9093E900242F762F85
:1009000050E0891731F07091EC002091ED0050918A
:10091000F00021FD07C09F5F973071F78093E900D9
:1009200081E008953091EB003E7F3093EB003091F1
:10093000ED003D7F3093ED003091EB00316030935E
:10094000EB007093EC002093ED005093F0002091A9
:10095000EE0027FDE0CF80E00895CF92DF92EF9286
:10096000FF920F931F93CF93DF93C8EDD0E0888160
:100970008F7E8883E7EDF0E080818160808384E072
:1009800082BF81E08093030788818E7F888302EE97
:1009900010E0F80110821092DA0081EEC82ED12CFE
:1009A000F601108288818F778883888180688883A8
:1009B00088818F7D888319BC1092100710921107CF
:1009C00010920F0710920E0790EEE92EF12CF7010E
:1009D00080818B7F808388818160888342E060E0B2
:1009E00080E00E947B04F60180818E7F8083F80185
:1009F000808181608083808188608083F70180812D
:100A00008E7F8083888180618883DF91CF911F9161
:100A10000F91FF90EF90DF90CF900895FC018091AF
:100A200018079091190786179707A0F061157105AF
:100A300029F49091E8009E779093E80090E061158A
:100A4000710551F4911108C08091E80082FF34C013
:100A500080E00895BC01F2CF809110078823C1F196
:100A60008530C1F18091E80083FD30C08091E800BD
:100A700082FDEACF8091E80080FFE1CF8091F30012
:100A80002091F200382F6115710519F028303105D9
:100A900058F091E02830310509F090E02091E8000D
:100AA0002E772093E800CBCF81918093F1006150A5
:100AB00071092F5F3F4FE7CF80911007882341F0E6
:100AC000853041F08091E80083FFBECF81E008953A
:100AD00082E0089583E008950895089580910507C0
:100AE00008952FB7F8946091FC067091FD068091EF
:100AF000FE069091FF062FBF08952091F9063091D0
:100B0000FA062817390771F09093FA068093F906D0
:100B1000E091F706F091F806309721F00084F18516
:100B2000E02D099408952091F5063091F6062817D6
:100B3000390771F09093F6068093F506E091F70679
:100B4000F091F806309721F00680F781E02D0994A6
:100B50000895E091F706F091F806309721F00190A2
:100B6000F081E02D099480E00895CF93DF93EC01AC
:100B7000409111065091120660911306709114066F
:100B80002FB7F8948091FC069091FD06A091FE0687
:100B9000B091FF062FBF841B950BA60BB70B843FAC
:100BA0009140A105B10518F58091110690911206AA
:100BB000A0911306B091140680930D0690930E0633
:100BC000A0930F06B093100684EF91E0A0E0B0E090
:100BD0008093090690930A06A0930B06B0930C0627
:100BE000D0931906C0931806DF91CF9108950E9403
:100BF000710560930D0670930E0680930F06909317
:100C0000100682E390E0A0E0B0E0E2CFFC01848136
:100C1000862351F492819923B9F06923808583FF5B
:100C200005C081E061110FC080E00895892F8F70A9
:100C300092959F70982B862F8F7062956F70682B9E
:100C400081E09613F1CF089581E0FDCF452B39F077
:100C5000682381E06F3F09F080E08170089581E0B2
:100C6000FCCFDC016091050680910606962F891362
:100C700001C00895292F30E0F901EE0FFF1FE35066
:100C8000FA4F408151814A175B07A1F487E08A9FA0
:100C9000A0018B9F500D11244B535A4F81E0FA0154
:100CA00084839613E6CF2F5F3F4F23703327209323
:100CB000050608952F5F3F4F922F9370D8CF109263
:100CC000620510926105E5ECF5E08581811102C0B5
:100CD00014821682379685E0ED3FF807B1F7089544
:100CE000AF92BF92CF92DF92EF92FF920F931F933A
:100CF000CF93DF938FEF9FEF4430510508F468C026
:100D00004091340541FB882780F990E0880F991FB6
:100D100042FB002700F910E0000F111F000F111F08
:100D2000802B912B40FBCC24C0F8D12C8C299D2901
:100D300043FB222720F9C22FE0E0DE2F53E0CC0F47
:100D4000DD1F5A95E1F78C2B9D2B44FBAA27A0F9B8
:100D5000B0E0E4E0AA0FBB1FEA95E1F78A2B9B2BDA
:100D600045FBEE27E0F9F0E0A5E0EE0FFF1FAA95A6
:100D7000E1F78E2B9F2B46FB222720F930E0B6E0CF
:100D8000220F331FBA95E1F7822B932B47FB2227C3
:100D900020F930E03695322F222737952795822B80
:100DA000932B20913505322F3170F32EF92A269599
:100DB0002170B22EBB0CA82EBF28C501BB0CAA0BFC
:100DC000BB0BFB0180839183A283B38390E080E01F
:100DD000DF91CF911F910F91FF90EF90DF90CF9017
:100DE000BF90AF90089580911C0690911D0690933E
:100DF000190180931801089581152CE5920741F49B
:100E00002091160130911701232B11F490E080E01E
:100E1000089580E00895F894E82FE295EF70F0E0EF
:100E200031A1282F2F7081E090E001C0880F2A9512
:100E3000EAF7982F9095932391A392A1892B82A3EF
:100E4000789408959091340592FF06C0282F287158
:100E50002830F9F4877F846093FF06C0282F28711B
:100E60002831F1F4877E84612091350520FF06C08A
:100E7000382F38713830D9F4877F816021FF06C060
:100E8000282F28712831D1F4877E816194FD877ED7
:100E90000895282F24712430F9F68B7F8860DCCFE9
:100EA000282F2471243101F78B7E8861DDCF382F04
:100EB0003171313019F78E7F8860E0CF282F217192
:100EC000213121F78E7E8861E1CFCF93DF93EC0152
:100ED00082389105A9F1D8F58133910509F496C0BE
:100EE00048F58932910509F48AC08A9709F495C0BA
:100EF000C11522E5D20708F0B6C0C11531E5D30708
:100F000008F026C1C83ED10508F09CC0C03ED105FE
:100F100060F5C83AD10508F087C0C53AD10508F098
:100F2000EFC0C130D10509F12097F9F0C430D105E7
:100F3000E0F440C08533910509F45AC0C997C1F661
:100F400080913405837089F0C0EED0E00EC0833EFE
:100F5000910599F170F4803E910501F1823E910571
:100F600039F68091340582FD21C0CE01DF91CF9109
:100F70000895863E910561F1873E910571F1843EA9
:100F8000910509F0B5CF8091350581FFEECF8091B5
:100F90003405C7EED0E084FD0DC0E7CF8091340565
:100FA00080FD07C19091350590FFDFCFC3EED0E003
:100FB00084FFDBCFD0E0C0E0D8CF8091340582FD44
:100FC000FBC09091350590FDBFCF84FFCECFF2CF0F
:100FD0008091340583FDDDCFC8CF8091340583FD3A
:100FE000EEC09091350591FFF0CFC4EED0E0BDCFBB
:100FF0008091340585FFB9CFC9E2D0E0B6CF8091AA
:10100000340585FFB2CFC5E3D0E0AFCF8091340582
:1010100086FFABCFCAE2D0E0A8CF8091340586FF2F
:10102000A4CFC1E3D0E0A1CFCF3BD10518F6C85A79
:10103000D0E0CC0FDD1FC85DDE4F0990D881C02DF8
:10104000D46493CFC11540E5D40708F064C0C1153E
:1010500080E4D80708F05CC0CE019A9581159F41C5
:1010600008F483CFA7CFC11536E5D30718F5C1150E
:1010700045E5D40708F084C0C11584E5D80708F019
:101080007AC09C2F969596959E0123703327C115A3
:10109000D34508F462C0C1E0D0E002C0CC0FDD1F30
:1010A0002A95E2F730E2939FC0011124C82BD92B77
:1010B000DA685BCFC1158AE5D80778F4C11599E5E0
:1010C000D90708F068C0C11528E5D20708F472CF27
:1010D000DC2FCC27C06FD06A48CFCE019056811547
:1010E000904208F067CF8D2F8F710E94220790E009
:1010F000982F882788279F719C012C2BE90149C0D4
:10110000C55AD0E0CB5DDE4FC881D0E0D0642DCF92
:10111000DF70D06A2ACFCE01E4E096958795EA95F4
:10112000E1F783702C2F26952695237040E2249FAB
:1011300090011124382B8C2F8370C1E0D0E002C0C5
:10114000CC0FDD1F8A95E2F7C22BD32BDC680DCFC5
:10115000DC2FCC27C16FD06A08CFC1E0D0E002C03D
:10116000CC0FDD1F2A95E2F720E2929FC0011124E7
:10117000C82BD92BEBCFDC2FCC27C46FD06AF5CE90
:101180008C2F0E942207C82FD0E0DC2FCC27CC2741
:10119000DF71D062EACE8C2F8F700E94220734E07C
:1011A000D695C7953A95E1F7CF709C2FEC01D069A1
:1011B000DCCEC9E3D0E0D9CEC2EED0E0D6CEC6EECA
:1011C000D0E0D3CE8091FD01882331F01092FD0153
:1011D0001092FC011092FB010895809590911C07DC
:1011E000982390931C070895809590913C0598232F
:1011F00090933C05089590913C05892B80933C0584
:1012000008951092F2011092F1011092F0010895E8
:101210008091EF0181111092EF010895EEE8F1E065
:101220009191891303C0DF0111971C9291E0E43979
:10123000F907B1F70895AEE8B1E0EFEF90E02D9136
:10124000821751F0EF3F19F4211101C0E92F9F5F80
:101250009630A9F7EF3F09F408950E2E000CFF0B0E
:10126000E457FE4F828308952091EE019091AD01E5
:10127000291302C080E0089530E0F90153E0EE0F39
:10128000FF1F5A95E1F7E255FE4F5181561306C0F4
:101290005081581303C05281541304C02F5F3F4F35
:1012A0002770E6CF81E008958091EE019091AD0125
:1012B000981301C008958F5F8770FACF9E3F49F160
:1012C000990F990F990FE92FE80F9E2F9770E695C8
:1012D000E695E69583E0E89FF0011124E756FE4F7E
:1012E00050E040E080E0219130E0092E02C03695C8
:1012F00027950A94E2F721703327042E01C0220FAC
:101300000A94EAF7822B4F5F5F4F4330510559F73C
:10131000089580E008959E3F69F1990F990F990F04
:10132000E92FE80F8E2F877041E001C0440F8A95A6
:10133000EAF7E695E695E69583E0E89FF00111244B
:10134000E756FE4F30E020E070E05191DF01119749
:10135000CB01022E02C0969587950A94E2F7817020
:1013600081958527842385278C932F5F3F4F2330DA
:10137000310559F7089592959F70963091F058F481
:10138000925F9F70923058F4803F19F030F4883E9D
:1013900030F481E008959A5FF4CF843FD1F380E088
:1013A0000895883EB0F3813FD1F7F3CF9C013A9581
:1013B00021153F4150F5FC01EE27F170BC01662775
:1013C0007270AC01442754709C012227387094FF3E
:1013D0000EC080E1EF2B09F480E0672B09F08062FA
:1013E000452B09F08064232B89F08068089581E003
:1013F000EF2B09F480E0672B09F08260452B09F0A0
:101400008460232B19F08860089580E00895CF92BE
:10141000DF92EF92FF920F931F93CF93DF936C01B4
:101420007B0164E670E088E70E949B34EC0197FD45
:1014300012C010E000E0F601E00FF11F849164E6B5
:1014400070E00E941535EC01892B29F40F5F1F4FC6
:101450000E151F0581F70E949835CE01DF91CF91BF
:101460001F910F91FF90EF90DF90CF9008958091A2
:101470003A0590913B05911103C091E089270895A9
:10148000882369F062E070E086E896E00E94070A2F
:10149000892B19F080913A05089510923A058091B0
:1014A0003A05EBCFCF93C0913A0580913B05882355
:1014B000D1F00E947105605A75418F4F9F4F609324
:1014C0003605709337058093380590933905C1111F
:1014D00008C062E070E084E896E00E94070A892B69
:1014E00029F0C0913A058C2FCF91089581E0809327
:1014F0003A05F7CF809300077093020760930107C6
:10150000809110078430F9F48093E9008FEF909177
:10151000E800815095FD06C095ED9A95F1F7000021
:101520008111F5CF8091E80085FF0DC050E040E0CB
:1015300063E070E080E097E00E9432048091E80070
:101540008E778093E8000895BC0184E00C947A0AB9
:10155000BC0183E00C947A0ACF93DF93EC0181E025
:101560008093E9008FEF9091E800815095FD06C0CF
:1015700095ED9A95F1F700008111F5CF8091E80083
:1015800085FF14C050E040E068E070E0CE010E94AA
:1015900032048091E8008E778093E80088E0FE01B5
:1015A000A6E0B7E001900D928A95E1F7DF91CF9127
:1015B000089581E08093E00080E28093D80010924B
:1015C000C9008FE19EE40197F1F700C0000087E0B9
:1015D00090EBDC0180931D0790931E07A0931F07DB
:1015E000B093200788E19CE00FB6F894A89580930B
:1015F00060000FBE90936000FFCF019708F408953C
:10160000EFE9FFE03197F1F700C00000F6CF0F934C
:101610001F93CF93DF930CE116E0CFEAD0E0CE0129
:101620000E940736F80181938F012196C33DD105B1
:10163000B1F7CEEFD5E0FE0185919491009711F0BE
:10164000FC0109952C96F6E0CE38DF07A1F7DF9173
:10165000CF911F910F9108950F931F93CF93DF9315
:10166000823000F561111EC024E0829F80011124A8
:1016700050E0440F551F040F151F09551F4FC80197
:101680000E940736C82FD0E0DC2FCC27C801019676
:101690000E9407369E01282BC901DF91CF911F912F
:1016A0000F91089590E080E0F8CF0F931F93CF93B0
:1016B000DF93823038F5643028F5483018F520E1A2
:1016C000629F8001112450E0440F551F040F151F25
:1016D00030E4839FC0011124080F191FC8018796A9
:1016E0000E940736C82FD0E0DC2FCC27C80188968F
:1016F0000E9407369E01282BC901DF91CF911F91CF
:101700000F91089590E080E0F8CF462F20913205A8
:1017100030913305232B91F47E3F39F46E3F71F401
:1017200080913005909131050895823038F47430FD
:1017300028F4683018F4672F0C94550B90E080E083
:101740000895CF92DF92FF920F931F93CF93DF9371
:101750006C0100911B0780911A07082BC7E0D0E0AD
:1017600010E0FC2EC8010C2E02C0959587950A94B6
:10177000E2F780FD0CC02197A0F7F12C8F2DDF91AF
:10178000CF911F910F91FF90DF90CF900895B601F8
:101790008C2F0E94850B0E946507019761F3EECFA5
:1017A000CF93DF93EC010E94A10BBE010E94850B39
:1017B000DF91CF910C946507FC018681978100979A
:1017C00021F00E9465070C94BB09808191810E94E1
:1017D000D00BF9CF1F93CF93DF9300D000D00F929F
:1017E000CDB7DEB749835A8389819A816623B9F0E0
:1017F0002223A9F00E94A10B182F682F89819A81BA
:101800000E948B0969817A81812F0F900F900F9030
:101810000F900F90DF91CF911F910C94850B0E9438
:101820005E09182FEFCFFC01262F86819781009744
:1018300039F4408151816281738184810C94EA0B77
:10184000089583E290E00E940736893989F484E2A2
:1018500090E00E940736833759F485E290E00E94B9
:10186000073691E0863A09F090E0892F817008955B
:1018700080E0FCCFCF9384E090E00E940736C82F31
:1018800082E290E00E940736982F8C2FCF91089526
:10189000DB01FC013296259134914217530758F031
:1018A000FC01349665917491A901CD010E94E73540
:1018B00090E080E008958FEF9FEF08950F931F93BE
:1018C000CF93DF930CE116E0CFEAD0E0CE010E9487
:1018D0000736F80161918F01681719F0CE010E9457
:1018E00015362196C33DD10589F7DF91CF911F9120
:1018F0000F910895DA019C012E5F3F4FF901459148
:101900005491F90125913491A217B30758F0FC01C5
:101910003496859194910E94E7350E945E0C90E088
:1019200080E008958FEF9FEF0895CF93DF93C3EC8E
:10193000D1E060E0CE010E9415362196C11584E009
:10194000D807B9F7DF91CF9108951F93CF93DF9315
:10195000122F8230D8F4611119C04230B8F494E0EB
:10196000899FE001112450E0440F551FC40FD51F7B
:10197000C955DF4F632FCE010E941536612FCE016E
:101980000196DF91CF911F910C941536DF91CF9185
:101990001F9108950F931F93CF93DF938901823096
:1019A00058F5643048F5483038F501152CE5120734
:1019B00031F42091160130911701232BE9F090E1C9
:1019C000699FE001112450E0440F551FC40FD51F3B
:1019D00020E4829FC0011124C80FD91F612FCE01BE
:1019E00087960E941536602FCE018896DF91CF91A1
:1019F0001F910F910C941536DF91CF911F910F918C
:101A00000895CF93C82F6FEF811169E983E290E0C9
:101A10000E9415366FEFC11163E784E290E00E94E7
:101A200015366FEFC11166EA85E290E0CF910C9414
:101A30001536CF93C92F682F84E090E00E941536A9
:101A40006C2F82E290E0CF910C9415369B01883088
:101A500070F49AE0899FB00111246D527F4F4AE0E3
:101A600050E0C9010E94F73590E080E008958FEFC3
:101A70009FEF08958F929F92AF92BF92CF92DF9285
:101A8000EF92FF920F931F93CF93DF93CDB7DEB703
:101A90002A970FB6F894DEBF0FBECDBF05E416E05F
:101AA000F12CE12C80E0C82E8EE1D82E9AE2A92EEE
:101AB0009EE1B92E28E1822E2DE1922EF801D182ED
:101AC000C082B382A28295828482F58AE48ABE01B2
:101AD0006F5F7F4F8E2D0E94260D892B29F48985FB
:101AE0009A85F801938B828BFFEFEF1AFF0A0A5E4B
:101AF0001F4F88E0E816F10409F72A960FB6F8940C
:101B0000DEBF0FBECDBFDF91CF911F910F91FF9030
:101B1000EF90DF90CF90BF90AF909F908F900895FF
:101B20008F929F92AF92BF92CF92DF92EF92FF92ED
:101B30000F931F93CF93DF93CDB7DEB72A970FB6DE
:101B4000F894DEBF0FBECDBF08EB14E086EAC82EC6
:101B500084E0D82E93E7E92EFF24F39427E0922E19
:101B600035EAA32E34E0B32E88248394D6010D9356
:101B70001D936D014AE050E0B701CE0101960E942D
:101B8000F735F8013896DF01892D1D928A95E9F71E
:101B900089819A81D80111969C938E938F81129698
:101BA0008C9312978D8113968C9313978885149636
:101BB0008C931497898515968C9315978B819C81AE
:101BC00017969C938E93169718961C9218978A8551
:101BD00087FF4BC01E961C921E921D9780FF03C06C
:101BE000D80118968C9281FF04C0F801908592600C
:101BF000908782FF07C0D80118969C91189794602F
:101C000018969C9383FF04C0F80190859860908794
:101C100084FF07C0D80118969C9118979061189678
:101C20009C9385FF04C0F801808580628087015FF6
:101C30001F4FFAE0EF0EF11C83ECE81681E0F80686
:101C400009F094CF2A960FB6F894DEBF0FBECDBF31
:101C5000DF91CF911F910F91FF90EF90DF90CF9088
:101C6000BF90AF909F908F900895F801B686A5869B
:101C7000B5CFCF92DF92EF92FF920F931F93CF9346
:101C8000DF93CDB7DEB72A970FB6F894DEBF0FBE4D
:101C9000CDBFE5E5F4E080E5DF011D928A95E9F727
:101CA000E5ECF5E088E3DF011D928A95E9F785E52B
:101CB000C82E84E0D82E7F0103E211E0F701D18223
:101CC000C0824AE050E0B801CE0101960E94F7358B
:101CD00088E0FE013196D60101900D928A95E1F7D8
:101CE00089859A85D70113969C938E931297BAE0B3
:101CF000CB0ED11CE7E0EE0EF11C065F1F4F033741
:101D0000F1E01F07D9F62A960FB6F894DEBF0FBE92
:101D1000CDBFDF91CF911F910F91FF90EF90DF909A
:101D2000CF9008951F920F920FB60F9211242F9308
:101D30003F934F935F936F937F938F939F93AF9353
:101D4000BF93EF93FF938091E10082FF09C08091E0
:101D5000E20082FF05C08091E1008B7F8093E1006B
:101D60008091DA0080FF24C08091D80080FF20C0DD
:101D70008091DA008E7F8093DA008091D90080FF15
:101D80009DC080E189BD82E189BD09B400FEFDCF1F
:101D900081E08093100780910307811109C00E94A0
:101DA000E2030E94AD048091E20084608093E2002F
:101DB0008091E10080FF17C08091E20080FF13C096
:101DC0008091E2008E7F8093E2008091E20080614A
:101DD0008093E2008091D80080628093D80019BC83
:101DE00085E0809310078091E10084FF2BC08091F3
:101DF000E20084FF27C080E189BD82E189BD89B509
:101E0000982F917080FFFBCF8091D8008F7D8093B9
:101E1000D8008091E1008F7E8093E1008091E20004
:101E20008F7E8093E2008091E20081608093E200E7
:101E300080911107882309F447C084E0809310073C
:101E4000809110078091E10083FF27C08091E2001C
:101E500083FF23C08091E100877F8093E10082E0CF
:101E600080931007109211078091E1008E7F80937C
:101E7000E1008091E2008E7F8093E2008091E20099
:101E800080618093E20042E060E080E00E947B0499
:101E90008091F00088608093F000FF91EF91BF91F6
:101EA000AF919F918F917F916F915F914F913F91F2
:101EB0002F910F900FBE0F901F90189519BC109284
:101EC00010071092030774CF8091E30087FD93E021
:101ED00090931007B5CF78941F921FB61F921124CC
:101EE0008F939F93AF93BF938091FC069091FD06D3
:101EF000A091FE06B091FF060196A11DB11D809331
:101F0000FC069093FD06A093FE06B093FF06BF91DA
:101F1000AF919F918F911F901FBE1F9018959C01AC
:101F20004FB7F8948091FC069091FD06A091FE06B3
:101F3000B091FF064FBF821B930B08952FB7F89403
:101F40008091FC069091FD06A091FE06B091FF06DF
:101F50002FBF08959F92AF92BF92CF92DF92EF92E0
:101F6000FF920F931F93CF93DF9300D000D0CDB794
:101F7000DEB719821A821B821C8286E5E82E81E078
:101F8000F82E10E000E0CC24C394D12C22E6A22E3F
:101F900021E0B22EF70181917F018F3F09F445C006
:101FA000F894E82FE295EF70F0E021A18F70A60180
:101FB00002C0440F551F8A95E2F7CA01922F982B51
:101FC00091A392A18095892382A3789400C0EAE529
:101FD000F1E0912C31E021912F3F09F46BC0A22F49
:101FE000A295AF70B0E090968C9190E02F7002C0F7
:101FF000959587952A95E2F780FD5CC0832F982AF6
:10200000330FAE16BF0639F7F701319780818F3F46
:1020100011F00E940B0750EA5A95F1F7E1E0F0E069
:10202000EC0FFD1FE00FF11F90820F5F1F4F043078
:10203000110509F0AFCF44E050E0BE016F5F7F4F64
:1020400081E092E00E94DA3511E0009709F410E097
:10205000892B91F189819A81AB81BC8180930102A6
:1020600090930202A0930302B093040281E0809354
:1020700000020E949E0F9093FF018093FE018091C9
:10208000FE019091FF010E948F0F0597C8F080918B
:10209000010280933F04809102028093400480916A
:1020A00003028093410480910402809342041092C1
:1020B000000206C080E0A3CF809100028111DFCF33
:1020C000812F0F900F900F900F90DF91CF911F9164
:1020D0000F91FF90EF90DF90CF90BF90AF909F90C7
:1020E0000895CF93C82F8091350582FD0CC0809153
:1020F000FD018C1741F00E949E0F9093FC0180938C
:10210000FB01C093FD01CF91089580911E0690912F
:102110001F06892B89F00E949E0F2091FB013091B0
:10212000FC01AC01421B530B81E020911E06309153
:102130001F064217530708F480E0817008958091CC
:102140003C0590911C07892B80938C018091FD01A7
:10215000882309F180911E0690911F06892B29F092
:102160000E94851081110E94E20880918C0190915B
:10217000FD01892B80938C0120E08EE891E0FC0129
:102180003191CF0131112F5FF1E084399F07B9F709
:1021900021110E94E20880911506809590918C0192
:1021A000892390911606892B80938C0148E050E09A
:1021B00063EF71E08CE891E00E94DA35892BA9F099
:1021C00088E0ECE8F1E0A3EFB1E001900D928A9590
:1021D000E1F7E091F706F091F806309731F00280D0
:1021E000F381E02D8CE891E009940895EF92FF923D
:1021F0000F931F93CF93DF93EC018A85811134C035
:10220000EB80FC8087E5F81A26E12E9DC0012F9D0A
:10221000900D1124DC01AB5BB94F1496ED91FC914C
:102220001597309731F054966D917C91855B994F5D
:10223000099586E18E9D80018F9D100D11240B5B09
:10224000194FF80187810E94F408F80180850E94E7
:10225000ED080E949F10188219861B861E821D821F
:102260001092440610924306DF91CF911F910F9177
:10227000FF90EF900895CF93DF93EC01898981114E
:1022800018C081E0898B8F810E94FB0880911C0718
:102290009885892B80931C070E949F10EA81FB81FF
:1022A000309739F06C897D89CE010696DF91CF9108
:1022B0000994DF91CF91089580911A01877F8093CF
:1022C0001A0182E00E94ED0880911A0184FF06C085
:1022D0008F7E80931A0182E00E94FB0880911A0190
:1022E00085FF06C08F7D80931A0180E20E94FB0863
:1022F0000C949F1090E080E00E94930590E080E0B5
:102300000E947D0510921C070C949F1080931B0760
:102310000C947A1180911B07982F9670963019F4BF
:1023200088600C948611877FFCCF21E030E001C0EB
:10233000220F8A95EAF7209580911B0782230C943F
:1023400086119091F201809589238093F201282FC4
:10235000277091F4282F082E000C330B92171306C8
:1023600059F09091350592FD07C085958595859525
:102370000E9495110C94010908959091350592FBE6
:10238000222720F9281769F080FB92F990933505F0
:1023900080913405909135050E94190D82E00C94CE
:1023A000A111089521E030E001C0220F8A95EAF7DB
:1023B00080911B07822B0C9486119091350592FD1C
:1023C00010C098E0899F90011124622B6093F20164
:1023D0000E94D2110E949E0F9093F1018093F00110
:1023E00008950C94D21180931A070C947A111092CC
:1023F0003C05EEE8F1E086E0DF011D928A95E9F701
:102400000C947A111F93CF93DF93CDB7DEB7AA97C1
:102410000FB6F894DEBF0FBECDBF82E197E02091EA
:10242000F100DC012D93CD01B7E08A319B07B9F7AC
:1024300080911307833009F472C0B8F4813009F435
:1024400049C0823009F4B3C08091E80083FF96C28E
:1024500080911207909113079A3008F08FC2E92FEC
:10246000F0E0ED5AF94C0C94C4358A3009F48EC072
:102470008B3009F471C0893039F7809112078132AD
:1024800019F78091160790911707009711F002979E
:10249000D9F68091E800877F8093E8008091E8007A
:1024A00082FF38C09091F3008091F200029731F4DE
:1024B0008091F100813011F0863021F48091F1009B
:1024C000809305078091E8008B778093E8000E9455
:1024D0005C04BACF80911207813A09F0B5CF8091A0
:1024E000E800877F8093E800809116079091170796
:1024F000892B61F468E086E097E070E00E940E05A9
:102500008091E8008B778093E8009ECF60E090E0B8
:1025100080E0F3CF809110078111C0CF95CF8091DB
:102520001207813A09F090CF809116079091170712
:10253000892B09F089CF8091E800877F8093E8009C
:102540008091E80080FFFCCF80911C018093F10016
:102550008091E8008E77B9CF80911207813209F01F
:1025600073CF8091160790911707892B09F06CCFD4
:102570008091E800877F8093E8000E945C0480914E
:10258000140780931C010E94F7115ECF80911207FF
:10259000813209F059CF8091E800877F8093E8006D
:1025A0000E945C0480911507809304074DCF8091B1
:1025B0001207813A09F048CF8091E800877F809325
:1025C000E8008091E80080FFFCCF80910407BECF37
:1025D000803899F0823809F0D1C1809116078F7048
:1025E000873008F0CBC18093E9008091EB0085FB38
:1025F000882780F91092E90006C080910E0790911B
:102600000F07911182609091E800977F9093E80006
:102610008093F1001092F1008091E8008E77AAC1BA
:10262000882309F498C1823009F0A8C18091140769
:1026300081119BC1809116078F702FEF280F2630D4
:1026400008F09CC18093E9002091EB0020FF8DC130
:10265000933031F48091EB0080628093EB0085C170
:102660009091EB0090619093EB0021E030E001C08D
:10267000220F8A95EAF72093EA001092EA008091EF
:10268000EB008860EACF811179C1109114071F77A0
:102690008091E3008078812B8093E3008091E800B3
:1026A000877F8093E8000E945C048091E80080FFAF
:1026B000FCCF8091E30080688093E30082E01111F9
:1026C00083E0809310075AC18058823008F056C1C9
:1026D00020911407309115072C3DE3E03E07A1F54A
:1026E00083E08A838AE289834FB7F894DE011396E8
:1026F00020E03EE051E2E32FF0E050935700E491F8
:1027000020FF03C0E295EF703F5FEF708E2F90E0E7
:10271000EA30C0F0C7968D939D932F5F243159F70F
:102720004FBF8091E800877F8093E8006AE270E005
:10273000CE0101960E940E058091E8008B77809370
:10274000E8001CC1C096E7CF80911607909117074B
:10275000432F55274330510509F44AC078F54130DD
:10276000510509F485C08BE590E0E8E8F6E04230D9
:10277000510509F003C12091E800277F2093E8006C
:1027800020911807309119078217930708F49C01CC
:1027900040E02115310509F070C041116EC08091F3
:1027A000E80082FDC9CF80911007882329F2853087
:1027B00019F28091E80083FFF2CFBECF413251057C
:1027C00009F447C04232510509F0D8C08330910561
:1027D00008F0D4C0FC01EE0FFF1FE358FE4F01903C
:1027E000F081E02D86589E4FDC018C9190E01DC059
:1027F000332721303105E9F02115310579F02230F8
:102800003105F9F02330310509F0B8C0E5EFF6E005
:10281000E4918E2F90E0E5EFF6E007C0EBE4F7E0FF
:10282000E4918E2F90E0EBE4F7E0009709F4A6C066
:10283000A2CFE9E3F7E0E4918E2F90E0E9E3F7E03F
:10284000F4CFE3E1F7E0E4918E2F90E0E3E1F7E0ED
:10285000ECCF8330910508F091C0880F991FFC01DF
:10286000ED57FE4F0190F081E02D89E090E083CF9D
:1028700082E190E0E3EEF6E07ECF809110078823BE
:1028800009F45ACF853009F457CF8091E80083FDD1
:1028900053CF8091E80082FD82CF8091E80080FFD5
:1028A00078CF9091F3008091F2002115310519F055
:1028B0008830910550F041E0089709F040E08091A0
:1028C000E8008E778093E80064CF44914093F10054
:1028D0003196215031090196E8CF803809F04EC079
:1028E0008091E800877F8093E800809111078093B2
:1028F000F10092CE811142C0109114071230F0F510
:102900008091E800877F8093E800109311070E9470
:102910005C04112311F084E005C08091E30087FD81
:10292000FACF81E08093100742E061EC81E00E94E1
:102930007B0442E261EC84E00E947B0442E261ECB1
:1029400082E00E947B0442E260EC83E00E947B0410
:102950008091100713C080911407813079F481E0D1
:10296000933009F080E080930F071092E900809186
:10297000E800877F8093E8000E945C048091E80073
:1029800083FF0AC08091E800877F8093E8008091F0
:10299000EB0080628093EB00AA960FB6F894DEBF3E
:1029A0000FBECDBFDF91CF911F9108951F920F925F
:1029B0000FB60F9211242F933F934F935F936F9312
:1029C0007F938F939F93AF93BF93CF93DF93EF93B7
:1029D000FF93D091E900DF708091EC00C82FC170A7
:1029E00080FDC0E81092E9008091F000877F80931D
:1029F000F00078940E9402121092E9008091F00099
:102A000088608093F000CD2BCF70C093E900FF91D8
:102A1000EF91DF91CF91BF91AF919F918F917F9176
:102A20006F915F914F913F912F910F900FBE0F903B
:102A30001F901895ECE1F6E0128E138E8FEA90E06D
:102A40009183808385E0848F28E833E13383228378
:102A500022E330E0378B268B28EC30E0318F208F5B
:102A6000158E2AE030E0378F268F20E530E031A345
:102A700020A382A30E945E0C0E94F71110923505DC
:102A80001092340590E080E00E94190D0C94070B21
:102A90005F926F927F928F929F92AF92BF92CF92EE
:102AA000DF92EF92FF920F931F93CF93DF93CDB7F7
:102AB000DEB76E970FB6F894DEBF0FBECDBFC090E5
:102AC0001601D090170181E090E090931701809358
:102AD00016018CE6E82E85E0F82E94E7A92E95E005
:102AE000B92E10E0450100E015C0F30125913491A5
:102AF000452D602F812F0E94CA0C82E0680E711C48
:102B00005394E8E05E12F1CFF0E18F0E911C0F5F5D
:102B1000043019F03401512CE8CFF701259134919C
:102B200040E060E0812F0E94A50CF70132962591CC
:102B3000349141E060E0812F0E94A50C84E0E80E12
:102B4000F11CE0E4AE0EB11C113011F011E0CACF5F
:102B50000E941A151A8219821C821B821E821D82F3
:102B600018861F8288EC90E09A87898703ED10E031
:102B70004AE050E0B801CE0101960E943936065F66
:102B80001F4F0332F1E01F0799F77E018BE0E80E3B
:102B9000F11C8AE0F70111928A95E9F74AE050E0CA
:102BA000B801C7010E943936065F1F4F0337F1E0B5
:102BB0001F07A1F77E0185E1E80EF11C8AE0F7010D
:102BC00011928A95E9F78FEF9FEF9A8F898F87E0AF
:102BD0008E8F4AE050E0B801C7010E943936065F87
:102BE0001F4F033CF1E01F07A1F7D0921701C092DD
:102BF00016016E960FB6F894DEBF0FBECDBFDF9103
:102C0000CF911F910F91FF90EF90DF90CF90BF90E9
:102C1000AF909F908F907F906F905F90089580E02D
:102C20000E94010D60E086E290E00E9415360E944D
:102C300048150E94950C81E00C94010D69EE7EEF21
:102C400090E080E00E94333660E082E090E00E94F5
:102C5000153660E083E090E00E94153610921A0766
:102C600060E084E090E00E94153660E082E290E04F
:102C70000E94153660E085E090E00E94153660E025
:102C800086E090E00E9415366FEF87E090E00E94AA
:102C9000153640E050E0BA0188E090E00E94273607
:102CA00060E08DE090E00E94153640E050E0BA010F
:102CB00088E190E00E94273660E087E190E00E9482
:102CC000153640E050E0BA018CE190E00E942736D2
:102CD00070E060E080E290E00E94333640E050E037
:102CE000BA0188E190E00E94273680E00E94010D41
:102CF0000E940F1640E050E0BA018FE090E00E9481
:102D0000273640E050E0BA0183E190E00C9427368A
:102D1000CF92DF92EF92FF928FEF9FEF44305105F9
:102D200008F46AC0FB01C080D180E280F3800E9479
:102D3000F71180913405C0FA80F9B701A6017695A4
:102D400067955795479540FB81F9B701A60122E0A9
:102D500076956795579547952A95D1F740FB82F967
:102D6000B701A60133E076956795579547953A9553
:102D7000D1F740FB83F9B701A601E4E076956795AA
:102D800057954795EA95D1F740FB84F9B701A6011D
:102D9000F5E07695679557954795FA95D1F740FBFD
:102DA00085F9B701A601A6E07695679557954795F1
:102DB000AA95D1F740FB86F9B701A601B7E0769551
:102DC000679557954795BA95D1F740FB87F980935A
:102DD000340580913505D0FA80F9D1FACC24C0F8B9
:102DE000C0FA81F9809335058091340590913505BD
:102DF0000E94190D90E080E0FF90EF90DF90CF905F
:102E00000895882321F00E94ED080C949F100895E6
:102E1000882339F090911C07982B90931C070C94F1
:102E20009F100895882321F00E94F4080C949F10AD
:102E30000895882321F00E94FB080C949F100895A8
:102E4000882309F44BC0823871F40E94A90581FFE0
:102E500045C089E30E941B090E949F1089E30E94DC
:102E60000E090C949F10833859F40E94A90580FF25
:102E700035C083E50E941B090E949F1083E5EFCFB8
:102E8000843859F40E94A90582FF28C087E40E9473
:102E90001B090E949F1087E4E2CF9CEF980F913AA4
:102EA000F0F290E2980F983050F4877091E001C0F2
:102EB000990F8A95EAF7892F0E94F408D2CF9BE5F3
:102EC000980F933020F490E080E00C949305885A9A
:102ED000873120F490E080E00C947D050895FF9206
:102EE0000F931F93CF93DF93F82E00911A06109142
:102EF0001B060115110509F449C01092190610921C
:102F000018061092150610921606D8011696CD9145
:102F1000DC919E013A9521153F4108F4D07ED1E025
:102F2000C11101C0D0E0D8011996ED91FC911A971A
:102F3000309731F01B966D917C9180E00995D823F4
:102F4000DD2339F08CEF8C0F813A38F58C2F0E94FD
:102F50000E09FF2099F0E0911A06F0911B0680857A
:102F600084FD0CC080911706882341F080819181F7
:102F70009C0121503109253A3D45A8F00E949F103F
:102F800010921B0610921A0610921706C801DF91C4
:102F9000CF911F910F91FF9008950E949F108C2F49
:102FA0000E942017D6CF0E94B505E8CFCF93DF93BC
:102FB000EC010E942017CE010E94D6099E01205EDE
:102FC00031092830310510F0CD2B21F4DF91CF915C
:102FD0000C941217DF91CF910C940117CF93C82F47
:102FE000882309F484C08238C1F40E94A90581FDB8
:102FF0007EC089E30E941B090E949F102FEF81EE83
:1030000094E0215080409040E1F700C0000089E347
:103010000E940E09CF910C949F108338A1F40E9456
:10302000A90580FD64C083E50E941B090E949F10D2
:103030002FEF81EE94E0215080409040E1F700C0F6
:10304000000083E5E5CF8438A1F40E94A90582FD44
:103050004EC087E40E941B090E949F102FEF81EE53
:1030600094E0215080409040E1F700C0000087E4E8
:10307000CFCF8CEF8C0F813A68F4EEE8F1E08191CC
:10308000C81779F121E0E439F207C9F78C2F0E94C3
:103090001B09C0CF80E28C0F883048F4C77081E0F4
:1030A00001C0880FCA95EAF70E94FB08B3CFEBE591
:1030B000EC0FE33040F4F0E0EB5DFE4F808190E0F8
:1030C000CF910C949305C85AC73188F4EC2FF0E0E7
:1030D000EE0FFF1FE85DFE4F80819181CF910C9430
:1030E0007D058C2F0E940E090E949F10CFCFCF919B
:1030F00008951F93CF93DF93182FC0913C06D09172
:103100003D06893321F0C0913A06D0913B06812FCC
:103110000E94EE17209731F4812FDF91CF911F91FC
:103120000C9420178FE99FE00197F1F700C0000091
:103130002197F0CF0F931F93CF93DF93C42FD22FFC
:10314000FC0182818823A1F0409342060E949E0FD9
:103150009093410680934006C77081E001C0880FBC
:10316000CA95EAF7DF91CF911F910F910C9419172F
:1031700010914206141339C0809140069091410687
:103180000E948F0F209134063091350682179307E5
:1031900060F5C0E2CD0F1D17B9F080E2810F8830D5
:1031A00040F4177081E001C0880F1A95EAF70E9479
:1031B0001217C83048F481E09D2F977001C0880F26
:1031C0009A95EAF70E941917802F0E947918C83043
:1031D00098F4D77081E001C0880FDA95EAF7DF91A3
:1031E000CF911F910F910C941217C77081E001C00D
:1031F000880FCA95EAF7F3CFDF91CF911F910F9116
:103200000895AF92BF92CF92DF92EF92FF920F9309
:103210001F93CF93DF93EC018AE0A82E288122230D
:1032200009F48CC02130C9F599818A81913021F44B
:1032300022960E94791805C0923029F422960E94A5
:10324000EE172196EBCF933021F422960E9420179F
:10325000F8CF943011F02196F4CF229630E020E0A0
:10326000AE014F5F5F4F8053990B8A30910550F04C
:103270002150310930F38FE99FE00197F1F700C049
:103280000000F6CFA29EB001A39E700D11249C01F8
:10329000260F371F8981EA01E3CFE22FF0E0E059E2
:1032A000FE4FB490822F86958695869590E0FC011E
:1032B000E05AFE4FE4902770F12C022E02C0F594E4
:1032C000E7940A94E2F731E0E322FF24FC01E05B9B
:1032D000FE4FC490D12C022E02C0D594C7940A94FC
:1032E000E2F731E0C322DD24FC01E05CFE4F0491F3
:1032F00010E002C0159507952A95E2F70170112795
:10330000E114F10419F081EE0E94EE17C114D1040A
:1033100019F086EE0E94EE178B2D0E947918CD28A9
:1033200019F086EE0E942017EF2819F081EE0E9416
:103330002017012B09F485CF8CE27BCFDF91CF9151
:103340001F910F91FF90EF90DF90CF90BF90AF90C3
:103350000895CF93DF93EC010E94D6099E01205E71
:1033600031092830310510F0209739F40E941917DF
:103370008C2FDF91CF910C94EE170E940817F8CF95
:10338000662329F020911C07226020931C079C01D2
:103390003056211540E2340720F0305E21153041CF
:1033A00008F499270C94A919DF92EF92FF920F93DA
:1033B0001F93CF93DF937C018B01D42E80911A0150
:1033C00082FF8CC0C0915F05D0916005CE15DF05EE
:1033D00021F0E114F10409F081C080911A018B7F82
:1033E00080931A0181FD73C080915D0590915E0507
:1033F000A801481B590B81E0209118013091190157
:103400004217530708F480E08170F82E80911A016A
:10341000F0FA81F980931A01FE0183E0F695E795B1
:103420008A95E1F7EE71FF27E35CFA4F2081318145
:10343000AE014F70552781E090E002C0880F991FC0
:103440004A95E2F7FF2009F444C0822B932B918325
:10345000808380913C0581FF08C080911A018061C2
:1034600080931A0182E00E94F40880913C0585FF58
:1034700008C080911A01806280931A0180E20E9444
:10348000F4086F2DCE010E94C019DD2031F080912B
:10349000370685FF02C086FF3BC080913A069091B7
:1034A0003B060E94FD0A80915F05909160059C019A
:1034B0003056211540E2340720F0305E21153041AE
:1034C00008F499270E94D6170E945C111DC081E064
:1034D0009BCF8095909582239323B9CFC7019927DD
:1034E00097013056211540E2340728F0305E21154F
:1034F000304108F0C7010E94D61780915F05909176
:1035000060058E159F0501F310935E0500935D0520
:10351000DF91CF911F910F91FF90EF90DF90089571
:103520002F923F924F925F926F927F928F929F92D3
:10353000AF92BF92CF92DF92EF92FF920F931F93C1
:10354000CF93DF93CDB7DEB769970FB6F894DEBFA0
:103550000FBECDBF942F498B252F5A8B6B8B7C8B45
:103560008D8B4C895D89622F892F0E9426068111DF
:1035700009C08091970190919801019690939801CC
:10358000809397018B89811110921C071D861E86DE
:103590001F86188A85E0FE017196DE01199601905A
:1035A0000D928A95E1F78091350582FD1EC08091CC
:1035B0001E0690911F06892BC1F00E949E0F20913C
:1035C000F0013091F101821B930B20911E06309186
:1035D0001F068217930720F08091F20182FFF5C148
:1035E0000E94851081110E94E2084C855D856A85E4
:1035F00089850E942606811111C061E0CE010996DD
:103600000E94130C6C018B8527EFC2162CE5D206A5
:1036100081F4882321F181E080931B0129853A857B
:103620004B855C856D857E858F8598890E94DF2A14
:10363000C5C038EFC3163CE5D30629F4882379F0DA
:103640000E94B82BEBCF49EFC4164CE5D40639F4F1
:10365000882329F080911B018111F2CFDCCF05EC8A
:1036600015E0512CB12CA12C22242394312C2EEFC7
:10367000422EF8014081518188248A94982C20E0C0
:10368000822F90E0FC01EE0FFF1FE40FF51F608119
:1036900071816115710531F0C616D70609F44C0128
:1036A0002F5FEECFF12CFFEF8F169F0609F448C075
:1036B000F8014481F0901B018F2D411180E0F82F1B
:1036C000F170FF2EF801E58086819B85992309F42E
:1036D0000CC1FF2009F409C16090320670903306D6
:1036E000E11012C0A10101C0440F8A94EAF7842BB3
:1036F000868380916105909162058615970520F477
:103700007092620560926105C10102C0880F991F25
:103710002A95E2F70197F80126812817190681F406
:103720008091070690910806009709F460C00E94F6
:103730008F0F6816790608F05AC021E0F80124833B
:103740005F28FFEFAF1ABF0A095F1F4F28E0A216DC
:10375000B10409F08ECF8B85882309F421C155204F
:1037600009F41EC10E949E0F9093080680930706DD
:1037700080916405883010F591E0980F909364056E
:1037800098E0FE013996DE01119601900D929A950E
:10379000E1F73CE0839FC00111248B599A4F28E048
:1037A000FE013196DC0101900D922A95E1F72FEF91
:1037B0003FEFFC0131872087D386C28669960FB61A
:1037C000F894DEBF0FBECDBFDF91CF911F910F9157
:1037D000FF90EF90DF90CF90BF90AF909F908F9031
:1037E0007F906F905F904F903F902F9008958091C1
:1037F000050650910606982FF0E0E0E0851314C00E
:1038000090930506E017F10709F49ACF90E0FC01C8
:10381000EE0FFF1FE350FA4FB182A0820196837032
:103820009927809306068CCF682E712CF301EE0F3A
:10383000FF1FE350FA4F2081318147E0429FD001C2
:10384000439FB00D1124AB53BA4F6D917C911197EA
:10385000798F688F40E020E030E0E32FF0E0EE0F5A
:10386000FF1F688D798DE60FF71F8080918081148E
:103870009104E1F0F8010190F081E02DFF8BEE8BD7
:1038800020E005C08616970609F44F2D2F5FE22F22
:10389000F0E0EE0FFF1F6E897F89E60FF71F608152
:1038A00071816115710571F73F5FD7CF4423D1F066
:1038B000F801231708F0FD0121E024830E171F07EC
:1038C00021F490930506F42E3BCF981305C0AE1754
:1038D000BF0711F49F5F937093012F5F3F4F822FBB
:1038E00083708CCFF0E0E0E0F7CF90E0E1101FC0F4
:1038F000B10102C0660F771F2A95E2F79B012150A4
:1039000031098217930731F4442309F447C0C501F4
:103910000E943106C10101C0880F8A94EAF7982FEE
:103920009095F801868189238683FE2C09CF9C011E
:10393000082C02C0359527950A94E2F7A901417039
:103940005527BC016150710986239723892B11F5F6
:10395000452B01F1F80182819381892BC1F01B82F3
:103960001C821D821E8249824A820E949E0F8160B3
:10397000582F9D838C83F801828193818F83988750
:1039800029813A814B816D817E810E94DF2AF80175
:103990001582C0CFF22FF170EF2EBCCFEF2CBACF33
:1039A0009091050680910606981731F00E94C62B6B
:1039B000552009F433CE02CF0E94562B10920806F0
:1039C000109207060E945F06F3CF82E00E94A111C9
:1039D00007CECF93DF9300D000D00F92CDB7DEB7E4
:1039E0009093310580933005811520E2920748F4C9
:1039F0000F900F900F900F900F90DF91CF910C943C
:103A0000D6178EEF89838A831B820E949E0F816066
:103A1000782F9D838C8349815A816B818D810F9092
:103A20000F900F900F900F90DF91CF910C94901A00
:103A30000F931F93CF93DF938C01EB016BE474E042
:103A40008C2F0E94260D892BA1F480913A0690912B
:103A50003B060E94FD0ADD27CD5BDB4F8881F80124
:103A600010821882833009F148F4813059F0823095
:103A700081F0DF91CF911F910F9108958430D1F0A3
:103A80008530B9F780914B0490914C04009789F3ED
:103A900006C080914D0490914E04009799F3DF91F8
:103AA000CF911F910F910C94E91C80914F0490913C
:103AB0005004F3CF8091510490915204009779F70C
:103AC00020914B0430914C0480914D0490914E0410
:103AD00021153105D9F2009711F7C901E0CFCF9335
:103AE000DF9300D000D00F92CDB7DEB790933105B1
:103AF00080933005811520E2920748F40F900F90D3
:103B00000F900F900F90DF91CF910C94A9198EEF29
:103B100089838A8381E08B830E949E0F8160782F46
:103B20009D838C8349815A816B818D810F900F9089
:103B30000F900F900F90DF91CF910C94901ABF923D
:103B4000CF92DF92EF92FF920F931F93CF93DF9369
:103B5000B82EC0901B0780911A07C82AC7E0D0E092
:103B6000D12CF12CE12CD701C6010C2E04C0B69546
:103B7000A795979587950A94D2F780FF1FC04B2D84
:103B800060E08C2F0E942C0B8C0181309105B1F0EC
:103B90000E946F1D8FE39CE90197F1F700C00000C0
:103BA000C8010E94E91C81E0DF91CF911F910F9124
:103BB000FF90EF90DF90CF90BF900895219798F6F7
:103BC0004B2D60E080E00E942C0BEC010E946F1DE9
:103BD0008FE39CE90197F1F700C00000CE01E1CF2F
:103BE000CF93DF93EC010E946F1D80913A06909174
:103BF0003B060E94FD0ACE01DF91CF910C94E91C97
:103C00000F931F93CF93DF938C01862F6BE474E0A7
:103C10000E94260D892BC9F4C0914B04D0914C040D
:103C2000209799F0F8018081833069F4CE010E94D9
:103C3000F01DCE010E94F01DCE01DF91CF911F91AA
:103C40000F910C94F01D8430B8F7DF91CF911F9144
:103C50000F9108950F931F93CF93DF938C01EB0186
:103C60006BE474E08C2F0E94260D892B09F064C050
:103C7000FE01FF27D8018C91ED5BFB4F8130D9F419
:103C800019969C911997992311F080830CC01A966C
:103C90009C919923D1F382E0808380914D0490918F
:103CA0004E040097D9F480914B0490914C040097F6
:103CB00009F442C013C08230E9F519968C91199726
:103CC00081112DC01A968C9181110EC083E08083E2
:103CD00080914F0490915004009719F1DF91CF919A
:103CE0001F910F910C946F1D84E08083809151048B
:103CF00090915204009791F780914B0490914C045D
:103D00000097F9F00E94F01D80914D0490914E04AF
:103D1000009721F780914B0490914C04DFCF85E010
:103D2000808380914B0490914C04009729F00E946D
:103D3000F01DF0CF86E08083DF91CF911F910F912E
:103D4000089580914D0490914E04B1CF2F923F92EF
:103D50004F925F926F927F928F929F92AF92BF929B
:103D6000CF92DF92EF92FF920F931F93CF93DF9347
:103D700000D000D000D00F92CDB7DEB77C01DC01BF
:103D800013964D915C91149711966C9111978C91AB
:103D90000E9426068111CBC061E0C7010E94130C6E
:103DA0008C01F7018281811161C0D70112968C913B
:103DB00081119BC00031FFE51F0709F473C1013178
:103DC0002FE5120709F472C16801E7E5DE1AFFEF7B
:103DD000CF16D10409F060F56BE474E08C2D0E94DD
:103DE000260D892B29F586E18C9DF0018D9DF00D26
:103DF0001124EB5BF94F8681813009F059C1809124
:103E00004B0490914C04892B99F080914D04909132
:103E10004E04892B69F080914F04909150042091B9
:103E2000510430915204822B932B892B09F44AC1FF
:103E3000F7015280552009F457C10F35FDE51F07E2
:103E400009F44EC100362DE5120751F00E353DE55F
:103E5000130709F049C180910001882309F440C18A
:103E60001092000180E00E946F1751C080910D01F7
:103E700090910E01019609F498CFE5E4CE2EE6E08C
:103E8000DE2EB12CA12C9924939480910D01909158
:103E90000E018A159B050CF488CFF60186818823D4
:103EA000E9F0818592850817190739F48091430656
:103EB000909144060817190789F0D6011F969C9225
:103EC0001F971C961C930E931B97C6010E943B11D3
:103ED000C60106960E94F61010921C07BFEFAB1A9F
:103EE000BB0AE6E1CE0ED11CD0CFC80182519F455E
:103EF000409710F00C94B3278FEF93E00E940736A1
:103F00007EEED72ED00E03EC11E08823A9F180912C
:103F1000F201877061F0D70112968C91882339F0F5
:103F20008091350582FD03C082E00E94A111279691
:103F30000FB6F894DEBF0FBECDBFDF91CF911F91BA
:103F40000F91FF90EF90DF90CF90BF90AF909F9038
:103F50008F907F906F905F904F903F902F9008953B
:103F60000115F4E01F0799F2C8010E94073681117C
:103F700001C0DA940F5F1F4FD110F2CF19821A825D
:103F80001B821C8299249A9468012FEFC21AD20ACC
:103F9000C8010E94073689831A82882309F4B7CFA3
:103FA000813009F073C0580132E0A30EB11CC60184
:103FB0000E940736C82E8A83882309F4A8CFC5013A
:103FC0000E940736D82E8FEF8C0D833068F458018D
:103FD00043E0A40EB11CDB82DD2021F0CE0101966E
:103FE0000E9401198501D0CF8BEF8C0D833030F505
:103FF000C8010396DB825C01DD20A1F3580154E087
:10400000A50EB11C0E9407368C83882359F38B813F
:104010009C818130AFEF9A0710F0982F8827B6E087
:10402000CB1631F0E7E0CE1631F00E94F01DDACF6A
:104030000E946F1DD7CF0E94E91CD4CFF4E0CF12AD
:10404000D1CF580124E0A20EB11CC80103960E94F2
:104050000736DD2009F45BCF882309F458CF81505F
:10406000990B989E9001999E300D11244D2D415031
:10407000550BCA01820F931F019708F4B3CFAFE924
:10408000BFE01197F1F700C00000F6CFCE01019616
:104090000E9401195601A6CF81E00E94D2110E9410
:1040A0008A1135CF81E00E949511F9CF82E0FBCFD4
:1040B000823009F0BDCE80914F0490915004892B3D
:1040C00009F4B6CE26E12C9DC0012D9D900D112442
:1040D0008B5B994FDC0150961C920E943B11A8CE3D
:1040E00081E08093000113CF80910001882309F4BF
:1040F00062C6480140EE841A91084090FD0180910B
:10410000EF01482A80913C05482A58E08516910421
:1041100008F086C098012770332781E090E001C045
:10412000880F2A95EAF7552009F477C0482AD70165
:104130008D919C910E945E0921E030E0390102C01E
:10414000660C771C8A95E2F7E0911A06F0911B063F
:10415000FF83EE8320909401309095011D822D8184
:10416000E22FF0E0EE0FFF1FEA55FB4FC080D18039
:10417000C114D10409F4E2C6411005C0D60112965B
:104180008C91811187C0F601838190E0862197216F
:10419000892B09F47FC08085982F977009F487E0F8
:1041A000F8E08F16910408F055C0552009F44EC070
:1041B00086958170882309F46DC0D601AD90BC90BE
:1041C0000A151B0519F4552009F464C0EE81FF811E
:1041D000CE16DF0609F45EC0D6011D96ED91FC9166
:1041E000309721F08081882309F454C0642DC601E2
:1041F0000E940606882309F44DC00A151B0509F024
:10420000EFC60115110509F4F0C65110F0C6A2144D
:10421000B30409F03FC0512CEAC68095482287CFED
:10422000552009F474C610939501009394010E94DF
:104230007105609311067093120680931306909394
:104240001406109219061092180671CF82FB882767
:1042500080F9B0CF5520F1F08170ACCF0E942017CB
:10426000E4C60497813A910548F48A2D0E941B09FF
:10427000552009F4A0C50E949F1049CE0E949F10AE
:104280008FE39CE90197F1F700C000008A2D0E949E
:10429000EE17EECF9D819F5F9D8361CFFC01208152
:1042A00031810217130709F07FC551107FC51092A5
:1042B000170680E055C6882309F4CCC5FA01818928
:1042C000882309F4C7C5C501855B994F0E94F61084
:1042D000C1C580911A01816080931A01E9C580915E
:1042E0001A018E7F80931A010E945C11E1C58091B2
:1042F0001A018F7E013E110531F0053E1105C9F40A
:1043000080911A018F7D80931A0180911A0180FF9C
:10431000DEC5D70112968C910832110528F50E31B1
:10432000110508F074C00430110580F58111CBC56A
:10433000CEC5C8019056811540E2940720F0905EEA
:104340008115904110F780911A0182FFC0C58091BC
:10435000390681FDBCC52AE032E040E0B60190E0BC
:1043600080E00E94D419B3C50933110558F40D3209
:10437000110518F40B321105C9F69091370692FD1C
:10438000D5CF08C004361105C1F3D0CF90913706C0
:1043900094FDCCCF882309F4A1C090913C05809175
:1043A000FD01282F292B322F3D7FB1F1109260059E
:1043B00010925F053091370631FD2EC0F80143E0C1
:1043C000F695E7954A95E1F7EE71FF27E35CFA4F22
:1043D00098012F70332781E090E002C0880F991F69
:1043E0002A95E2F78095909520813181822393234D
:1043F0009183808360E0C8010E94C0198091FD0113
:104400008D7F0E94711082E00E94A11180CD909159
:10441000370693FD8BCFBECF38E0F701AAE0B2E0BC
:1044200001900D923A95E1F710920C0210920E0253
:1044300010920D02A0905F05B09060050A151B0553
:10444000B1F53091370635FF32C040911A0141FB7A
:10445000992490F841FF02C036FF29C040915D05C4
:1044600050915E05B601641B750B40913406509166
:10447000350664177507D8F491FF08C080911A01BA
:10448000806180931A0182E00E94F40880913C05CB
:1044900085FF08C080911A01806280931A0180E232
:1044A0000E94F408692DC5010E94C01930CD909179
:1044B0001A0121FB91F990931A018D7F0E947110CE
:1044C0001093600500935F05D0925E05C0925D0574
:1044D00080911A01846080931A0195CF970140E082
:1044E000B601C8010E94D41912CD053F4CE514074E
:1044F00009F462C008F45AC0063F8CE5180709F4B5
:1045000061C0D70112963C91332309F439C510924A
:1045100042060330BDE51B0708F060C00A3FECE52A
:104520001E0730F4C80182509C45449708F060C0D3
:104530000E943A0C909335058093340501313CE597
:10454000130709F465C108F0E2C009305CE51507FE
:1045500009F44CC108F0AFC005309CE5190709F417
:104560003DC108F095C00330BCE51B0709F42CC120
:1045700008F030C180913405816002301C4509F497
:1045800026C180913405909135050E94190D0E9435
:10459000F711BDCC07E225EE45EE68ED7CE5B2C42F
:1045A00006E221EE40EE63EF7CE5ACC407E225EEC7
:1045B00044EE64EF7CE5A6C406E221EE42EE65EF30
:1045C0007CE5A0C407E225EE46EE66EF7CE59AC4E2
:1045D00008E221E045EE69ED7CE594C40136FDE595
:1045E0001F0709F4A5CF053A2DE5120709F4A0CF5E
:1045F00006318CE5180709F4C7C40A358DE518079C
:1046000009F45CC108F038C10115ACE51A0709F4DA
:1046100045C10E3D1C4509F44EC1F70186819781C5
:10462000009709F44FC10E946507182F092FF70161
:10463000C280D580D2943FE0D3228091F20187706E
:10464000C1F0AC2CCC20B1F0892F807F803421F0D8
:1046500080E2810F883068F08091350582FD09C0C5
:1046600082E00E94A1118091F2018770AA24A39494
:104670008111A12C902E92942FE09222FBE0F9154B
:1046800008F4ADC1E92DF0E0E35AF94C0C94C435BF
:1046900080913405806207302CE5120709F497C039
:1046A00080913405806108301C4508F490C08091E9
:1046B000340580648CC0809134058B7F0D304CE5CF
:1046C000140709F484C080F40B308CE5180709F452
:1046D00093C0809134058C600C301C4508F477C081
:1046E000809134058D7F73C0809134058F7E0F30AB
:1046F000ACE51A0709F46BC080913405877F00315F
:104700001C4508F464C0809134058F7D60C00D3F66
:10471000ECE51E0709F478C050F505312CE51207C9
:1047200009F480C098F480913405837F03314CE50F
:10473000140709F44CC008F46FC00E94F71190915F
:104740003405892F97FB87F9805841C00B3F8CE5D2
:10475000180709F447C008F053C0809135058160FF
:104760000A3F1C4509F00DCF809335050ACF013073
:10477000BDE51B0709F462C0B8F4809135058C7F54
:104780000F3FFCE51F0781F380913505836001151C
:104790001D4550F380913505982F909591708E7F2F
:1047A000892B90FB81F9E0CF01363DE5130709F431
:1047B0004BC0053A4DE5140709F44DC002301D45C4
:1047C00009F0DFCE60E03BC08091340582608093C9
:1047D0003405D7CE809134058460F9CF80913405BB
:1047E0008860F5CF809135058260BECF0E94F711B9
:1047F000809134058068EBCF809134058E7FE7CFC0
:10480000809135058E7FB0CF809135058D7FACCFFF
:10481000809134058F7BDBCF0E94F71180913405A6
:104820008F77D5CF8091340582FB992790F921E0CD
:10483000922790FB82F990FB83F9C9CF61E08EE06B
:1048400090E00E9415369DCE90913405892F8F7E81
:1048500094FF8061BCCF90913405892F8E7F90FFAB
:104860008160B5CF80919601811104C089E20E94D8
:104870000E0901CD85E3FBCF0B35EDE51E0701F1F8
:104880000C351D4509F0C9CE8091350582FB88277E
:1048900080F991E089270E94BD11BFCE0E94F711D7
:1048A0002FEF34E34CE0215030404040E1F700C0AE
:1048B00000000E94D90A0E941E1629CB81E0EBCF8E
:1048C00080E0E9CF828100811181882369F0C801ED
:1048D0000E94A10BD82E682FC8010E948B09B80135
:1048E0008D2D0E94850B9FCEC8010E945E09D82E97
:1048F000F6CF202F2F70B22E802F807F19F0B29428
:1049000090EFB922CC20A9F0BB2059F080E2810FB2
:10491000883010F0111107C08B2D0E94FB080E94F7
:104920009F10812F5AC080911C07B82AB0921C0793
:10493000F6CF812F0E942017BB2009F450C080E2DF
:10494000810F883010F0111104C08B2D0E94F408E3
:1049500003C08B2D0E94ED080E949F1040C0302F95
:104960003F70B32E802F807F803219F0B29480EF99
:10497000B822112321F1113009F4A4C0CC2009F48C
:10498000ADC0DD2009F47DC020E0D7014C91119627
:104990005C91119712966C91129713967C911397D4
:1049A00014968C910E94EA0B8091390681FDB9CF53
:1049B000F701858180FFB5CF8F70858362C08091BC
:1049C000350582FF40C0CC20C1F1BB2029F08B2DE2
:1049D0000E94FB080E949F1080E00E94EE17A92D04
:1049E000A850BB0B149710F40E94A905812F902F9B
:1049F0000E94BB098111B9C11092980110929701D0
:104A0000AA20B1F08091F20180FD12C0D701129668
:104A10001C928595859585950E94D211C7010E94AB
:104A2000A61E8091F2018595859585950E94951128
:104A300060E0C7010E94130C7ACA80E00E94201730
:104A4000BB2069F282CFCC2001F1D11004C080914B
:104A5000FD018B2917C041E0D41206C08091FD01F1
:104A60008B290E947110BBCF80913806823078F379
:104A7000D812EDCF0E94E2088091EF01B812B092F7
:104A8000EF018B2D0E941917AACFD11006C00E94EA
:104A9000E2088B2D0E941217A2CF8091380651E0B8
:104AA000D5120BC0823008F49ACF80913C058B213F
:104AB00009F495CF0E940809EACF823040F3D8125A
:104AC000E6CF8DCF80913E06CC2021F08D1508F4E5
:104AD00086CFD7CFD81608F082CFDBCFDD20C9F242
:104AE00080913C0690913D06193321F080913A0661
:104AF00090913B060E94FD0A812F0E9420176FCFE4
:104B0000802F86958695837069F0813009F067CF94
:104B1000812F902F9370C11002C090E080E00E941E
:104B20007D055DCF812F902F9370C11002C090E062
:104B300080E00E94930553CF802F837091F5C110C0
:104B40004ECF412F429546954770440F440F812F19
:104B50008F70042E01C0880F0A94EAF7212F20716C
:104B600014FF07C02FE030E001C0220F4A95EAF79A
:104B70002095302F369536953370323069F050F4E9
:104B800040911A07313029F0822B84230E94F311BF
:104B900026CF842B822BFACF282B80911A078227CD
:104BA000F5CF8695CC2011F0802F8170882309F4F1
:104BB00016CF412F429546954770440F440F812FE1
:104BC0008F70042E01C0880F0A94EAF7212F2071FC
:104BD00014FF07C02FE030E001C0220F4A95EAF72A
:104BE0002095302F369536953370323069F050F479
:104BF00040911B07313029F0822B84230E948611BB
:104C0000EECE842B822BFACF282B80911B07822794
:104C1000F5CFF02FFF70BF2ECC2029F08F2F0E94F0
:104C2000D211812F2FCF812F0E9412178B2D0E941E
:104C30009511D5CE123F89F160F4103FB9F0113FC4
:104C400081F0CC2009F48CC0D1106BCE802F8F71F5
:104C500028C0133F49F1143FA1F78091350582FF29
:104C60002FC0802F8F71CC2011F31BC080913E0686
:104C7000CC2079F0D81608F0B2CE202F2F7181E029
:104C800090E001C0880F2A95EAF790911B078927C9
:104C9000B5CF8D1508F4A3CEF0CF802F8F71C11042
:104CA000C6CF0E94D2119BCE80E0CC2009F4A6CFC3
:104CB00081E0902F9F7101C0880F9A95EAF79ECFEF
:104CC000809138068230A0F18091EF01CC20F1F084
:104CD0000E94F4088091F2018770843041F40E94B0
:104CE0000109802F8F710E949511A12C78CE80919F
:104CF0003806D816D0F7202F2F71B22E822F0E949F
:104D0000D21163E08B2D0E94DD11EFCF0E94FB08D2
:104D100080913806D81640F00E9401090E940809C7
:104D200064E0802F8F71EFCF81E00E94A111DDCF71
:104D3000CC2059F0302F3F71B32E832F0E94D21117
:104D400063E08B2D0E94DD114ACE81E00E94A1110B
:104D500041E04D1508F043CE82E00E94A1113FCE04
:104D6000D110BECE802F8F7162CFCC2019F0D11020
:104D700043CE46CED11040CE20E0F7014081518194
:104D80006281738184810E94EA0B8091390683FFDE
:104D900033CE8091970190919801029709F02CCE23
:104DA000812F0E94791828CE552029F0DC01189611
:104DB0008C9185FF7ECAC80197558F3F910511F0F0
:104DC00008F048C020910D0130910E0128173907D5
:104DD00024F490930E0180930D01F701228136E1B6
:104DE000389F5001399FB00C1124A5014B5B594FDE
:104DF0006A01DA0150962C935097928116968C9105
:104E00001697992309F457CA1A961C930E9319976B
:104E10008F5F16968C930E949E0FF601968785876A
:104E20008091FD01878380911C0790913C05892B1F
:104E300080870190F081E02D309741F0D6015496A3
:104E40006D917C91C501855B994F0995109344063E
:104E5000009343068091370680FF39C00E949E0F61
:104E60006C01D70112968C91882309F440CA809175
:104E70001A0182FF08C02AE032E040E0B60190E06B
:104E800080E00E94D4190B31BCE51B0709F421CA4C
:104E90000C31ECE51E0709F422CA90911A01892F02
:104EA0008E7F90FF81600A31FCE51F0709F41ACA62
:104EB000C8019056811520E2920728F0905E811576
:104EC000904108F022CA1092600510925F05033FDE
:104ED000BCE51B0709F464CB08F007CB083DFCE5F3
:104EE0001F0709F457CB093D2CE5120709F470CBD5
:104EF000073D3CE5130709F004CB06E221EE41EE45
:104F000067ED7CE5C7010E949A180C94871F809179
:104F10009401909195010817190781F41092950159
:104F2000109294011092110610921206109213061C
:104F300010921406109219061092180680911A0603
:104F400090911B06009709F436CFA8E08A169104C9
:104F500008F0A4C9642D0E94060681112CCF81E0BF
:104F60000E946F1728CF00313FE5130709F494C85A
:104F700001314FE5140711F00C94181F82E08DC821
:104F800006311C4509F049CB80913C05982F9A7A4F
:104F90002091360620FF04C0482F447409F090E0A9
:104FA00021FF04C0482F417109F090E022FF04C0A6
:104FB000482F487809F090E023FF03C0827209F07F
:104FC00090E0332309F44ECC81E0911101C080E0E0
:104FD0008093960189E2911185E30E941B094BC9D8
:104FE000A114B10409F013C9512CB12CA12C80E0FB
:104FF0000E946F17D0921B06C0921A0681E0809320
:105000001706F60185818093150651100EC0AB2856
:1050100061F0F601808191819C0124503109213A8F
:10502000310508F01BC90E940E09D6011696AD90F5
:10503000BC90C5019A9581159F4110F4E0EEBE2207
:1050400077247394C5010197853A9D4508F0712C2A
:10505000D6011996ED91FC911A97309731F01B9675
:105060006D917C9181E009957822772079F0F601A5
:10507000868197810E94D60980931606C501F8E0C3
:105080008F16910408F0EDC80E94B5050E949F108C
:10509000EFC8CF92DF92EF92FF920F931F93CF93BF
:1050A000DF938091AA01807F31F48091A701C091A4
:1050B000EE0181110BC0DF91CF911F910F91FF90F5
:1050C000EF90DF90CF9008952196C7708091AD0149
:1050D0008C1789F3F090A501E090A601C090A8017B
:1050E000D090A901A6016E2D8F2D0E942606D0E03A
:1050F0008111EACF8E0183E0000F111F8A95E1F73D
:10510000F801E255FE4F81818E11DECF80818F1133
:10511000DBCF82818111D8CFE380F480EC18FD08C9
:1051200060E085EA91E00E94130C80913406909132
:105130003506E816F90640F68091AA018F70806165
:105140008093AA01F801ED54FE4F80818F70806139
:10515000808385EA91E00E94A61EDF91CF911F9186
:105160000F91FF90EF90DF90CF900C9454093F92F5
:105170004F925F926F927F928F929F92AF92BF9267
:10518000CF92DF92EF92FF920F931F93CF93DF9313
:10519000CDB7DEB765970FB6F894DEBF0FBECDBFB3
:1051A0008C0185E0F801DE01519601900D928A95FF
:1051B000E1F7D8014C9011965C9011971296EC9003
:1051C00012971396CD90DC9060E085EA91E00E9402
:1051D000130C85EAA82E81E0B82E8090A80190904B
:1051E000A901A4016091A6018091A5010E94260653
:1051F0008111CAC1F090A701F601E819F9094F0120
:1052000060E0FF2009F46DC1C5010E94130C60909D
:105210003406709035063090AA018614970408F081
:1052200013C14091A8015091A901B090A501A0908F
:10523000A601832D807F6A2D09F0ADC08B2D0E94C1
:105240002606FE2C81113BC0D80111968C91119736
:105250008A1135C08C918B1132C02091AB013091F5
:10526000AC0116968D919C912817390741F5E110F4
:1052700026C0832D8F7080618093AA0185EA91E01A
:105280000E94A61E8091AA01F80185838F2D659644
:105290000FB6F894DEBF0FBECDBFDF91CF911F9147
:1052A0000F91FF90EF90DF90CF90BF90AF909F90C5
:1052B0008F907F906F905F904F903F900895F4EFA4
:1052C0006F16F1E07F0620F48091390680FF21C03F
:1052D000A601652D842D0E942606811118C081E04B
:1052E0008E2580FF16C04E2D652D842D0E94340919
:1052F000882379F085EA91E00E94A61E88E0E5EA1D
:10530000F1E0DF011D928A95E9F7F12CBFCF80E033
:10531000E8CFA601652D842D0E942606811124C0A8
:1053200081E08E25B82FB170CB2E80FF2BC04E2D83
:10533000652D842D0E943409D82E811123C0498AFD
:105340005A8A89899A890E94D00B292F22952F7019
:10535000223060F0243088F49F7061F0F80195816C
:10536000907F41F4FD2C92CF80E0DCCF9F7011F054
:105370008823C1F3805E8830A8F3C8010E94A61E6E
:10538000DC2CF0CFEE2009F481CF8091AA0181605E
:105390008093AA01BACF8B2D0E942606811124C0CA
:1053A000D80111968C9111978A111EC08C918B1186
:1053B0001BC02091AB013091AC0116968D919C9150
:1053C00017972817390781F4E1100EC015963C9203
:1053D000C8010E94A61E88E0F801A5EAB1E001908C
:1053E0000D928A95E1F752CFC8010E94DC0B882309
:1053F00039F1EE2029F18091AA018032A0F02091AC
:10540000A5013091A6013A8729871B86DD86CC86C7
:105410008E878091AB019091AC01988B8F87CE01E4
:1054200009960E94A61E88E0F801A5EAB1E0019065
:105430000D928A95E1F70E944928FF24F39426CF24
:10544000C8010E94A61EF9CF832D807F09F452CF98
:105450009090A5018090A6014091A8015091A901CA
:10546000682D892D0E94260681111CC0F8018181BA
:10547000881118C08081891115C02091AB0130912D
:10548000AC01868197812817390761F4E1100AC0C1
:105490003582C8010E94A61E88E0D5011D928A951A
:1054A000E9F7F4CEC8010E94DC0B882349F2EE2014
:1054B00039F28091AA01803208F4B5CF2091A5017C
:1054C0003091A6013A8329831B82DD82CC828E83B0
:1054D0008091AB019091AC0198878F83CE010196AA
:1054E000A0CF85EA91E00E94130C80913406909140
:1054F00035068816990680F6FE2CEE2009F4A0CF1A
:10550000E090A501D090A6014091A8015091A90179
:105510006D2D8E2D0E942606811128C0F8018181F3
:105520008D1124C080818E1121C02091AB0130915A
:10553000AC018681978128173907C1F4809139061B
:1055400082FD49CF9091AA0190FD45CF907F09F44B
:1055500042CF8091AA018583903F09F439CF982FDB
:10556000907F905F8F70892B858332CFC8010E9416
:10557000DC0B811158CF8091AA0181608093AA0130
:10558000C8010E94A61E82CEEE2009F459CFC801A0
:105590000E94DC0BF82E882309F452CF88E0F80132
:1055A000A5EAB1E001900D928A95E1F78091A501FD
:1055B0009091A6010E94D00B0E94492867CECF93FC
:1055C000DF93CDB7DEB760970FB6F894DEBF0FBE9E
:1055D000CDBF29873A874B875C876D877E878F870A
:1055E000988BCE0109960E94B72881112FC088E0C0
:1055F000FE013996DE01119601900D928A95E1F730
:105600004C855D856A8589850E94260681111EC0AC
:10561000A091AD01B0E0CD0101968770992720914E
:10562000EE012817190609F193E0AA0FBB1F9A95FE
:10563000E1F7A255BE4F98E0FE01319601900D9220
:105640009A95E1F78093AD010E9454098091EE0193
:105650009091AD01891317C060960FB6F894DEBF24
:105660000FBECDBFDF91CF9108950E94F711109228
:10567000AD011092EE0188E0E5EAF1E0DF011D9254
:105680008A95E9F7E3CFB8E08B9FC00111248255DA
:105690009E4F0E94B7288823F9F28091EE0190E096
:1056A0000196877099278093EE01D0CFDF92EF9219
:1056B000FF920F931F93CF93DF938091640588230C
:1056C00069F0C0916305E12C8CE0F82E80916405AF
:1056D000C81760F01092640510926305DF91CF91B6
:1056E0001F910F91FF90EF90DF900895DD24D394E8
:1056F000DC0ED09263050C2F10E0CF9DE001112449
:10570000CB59DA4F4B815C81698188810E942606E2
:1057100081112CC08E819F81892B21F488859985E8
:10572000019651F4288139814A815B816C817D81A8
:105730008E819F810E94DF2AF09EF001F19EF00D84
:105740001124EB59FA4F1482138210921C07E110B6
:105750000DC0CE010E94DC0B811108C08FE39CE9D3
:105760000197F1F700C00000EE24E394CD2DAECFF9
:10577000109208061092070610921B0180910606EF
:10578000809305060E945F060C94562B3F924F9221
:105790005F926F927F928F929F92AF92BF92CF92C1
:1057A000DF92EF92FF920F931F93CF93DF93C091FD
:1057B000050697E0892E01E010E02CE0322E3EEF46
:1057C000932E44244394809106068C1315C00E94A6
:1057D000562BDF91CF911F910F91FF90EF90DF90AB
:1057E000CF90BF90AF909F908F907F906F905F9081
:1057F0004F903F900C945F06D0E0FE01EE0FFF1F2C
:10580000E350FA4F80819181889ED001899EB00D2E
:105810001124AB53BA4F14962C911497211157C0F1
:1058200050906405E5E6F5E030E020E0712C5D0184
:10583000251508F04AC0E284F384D501CD90DC90B0
:105840006FEF7FEF612C462D50E0DA01AA0FBB1FEE
:10585000AC0DBD1D0D90BC91A02D109731F0EA1636
:10586000FB0609F4BA016394EECF6F3F7607A1F10E
:10587000D80102C0AA0FBB1F6A95E2F77A2AB801C5
:1058800002C0660F771F6A94E2F7AB0141505109DD
:1058900074161506F9F4329EF001339EF00D1124B2
:1058A000EB59FA4F889ED001899EB00D1124AB535D
:1058B000BA4F12962D913C9113973783268390828D
:1058C00091829187808715964C920E94310621968D
:1058D000C37079CF148213822F5F3F4F3C96A8CFBD
:1058E0001F921FB61F9211248F939F93AF93BF9364
:1058F0008091FB06811113C08091FC069091FD06FA
:10590000A091FE06B091FF064196A11DB11D8093A6
:10591000FC069093FD06A093FE06B093FF06BF9190
:10592000AF919F918F911F901FBE1F901895CDB77B
:10593000DEB7E9970FB6F894DEBF0FBECDBF84B7D0
:10594000877F84BF0FB6F894A89580916000886126
:1059500080936000109260000FBE80E890E00FB668
:10596000F89480936100909361000FBE85B78068C2
:1059700085BF85B7806885BF89E097E090938B01EC
:1059800080938A010E943A0D0E94390E0E94900D68
:105990000E94070B0E94E2030E94AD048091E20086
:1059A00084608093E2007894809110078823A1F0AE
:1059B0001091E9001F709091EC00892F817090FD8B
:1059C00080E8182B1092E9008091E80083FD0E9486
:1059D00002121F701093E90082E084BD93E095BD30
:1059E0009AEF97BD80936E000E94210C811102C036
:1059F0000E940F1684E90E940B0785E30E940B07A3
:105A000084E30E940B0786E30E940B070AE511E07E
:105A100022E6E22E21E0F22ED8018D918D018F3FFA
:105A200011F00E940B07E016F106B1F784E0EFE3F6
:105A3000F4E0DF01282F1D922A95E9F7E1E0F2E07A
:105A4000DF011D928A95E9F790E080E00E940F3611
:105A5000893E9E4F21F40E94210C811102C00E94B8
:105A60001E1682E090E00E940736809305020E9495
:105A70003A0C90933505809334050E94AA0FEFE30A
:105A8000FCE93197F1F700C000000E94AA0F809155
:105A90003F0480FF08C06FEF7FEF90E080E00E943E
:105AA00033360E94D90A83E090E00E9407360E94B4
:105AB000F31183E08093380480E2809315020E9402
:105AC00095346DE070E083E092E00E94070A892B34
:105AD000E9F58091380463E070E081FD5CC280E00C
