:100000000C9405040C943D040C943D040C943D04A4
:100010000C943D040C943D040C943D040C943D045C
:100020000C943D040C943D040C94C2100C943517B0
:100030000C94032F0C943D040C943D040C943D044B
:100040000C943D040C943D040C943D040C943D042C
:100050000C943D040C949B110C943D040C943D04B1
:100060000C943D040C943D040C943D040C943D040C
:100070000C943D040C943D040C943D040C943D04FC
:100080000C943D040C943D040C943D040C943D04EC
:100090000C943D040C943D040C943D040C943D04DC
:1000A0000C943D040C943D040C943D04050109029C
:1000B000A10185020901A100050919012905150001
:1000C00025019505750181029501750381010501E1
:1000D000093009311581257F950275088106093897
:1000E0001581257F950175088106050C0A380215D2
:1000F00081257F950175088106C0C005010980A191
:1001000001850319012AB700150126B7009501756D
:10011000108100C0050C0901A101850419012AA064
:1001200002150126A002950175108100C00660FF2E
:100130000961A1010962150026FF0095207508815B
:10014000020963150026FF00952075089102C0057D
:10015000010906A101050719E029E7150025019508
:1001600008750181029501750881010507190029AB
:10017000FF150026FF009506750881000508190186
:100180002905950575019102950175039101C0003E
:10019000000000000000000000000000000000005F
:1001A000000000000000000000000000000000004F
:1001B0000000007E0F00D4FFFFFFC70000007800A2
:1001C000000000000000002A2B28000000000000B2
:1001D0000000000000000000000029000000002CCA
:1001E0001E3420212224342627252E362D37382769
:1001F0001E1F202122232425263333362E37381F75
:100200000405060708090A0B0C0D0E0F1011121336
:100210001415161718191A1B1C1D2F3130232D35D4
:100220000405060708090A0B0C0D0E0F1011121316
:100230001415161718191A1B1C1D2F3130354C00B8
:10024000DA0281FFD9F1DB20A4A62EAF00A0C00006
:10025000A1C800AED580A81FD300408D1420000097
:1002600000000000000000040000000705FD01017F
:10027000F10D0D0D0911E1020408E000000000007D
:1002800000000000000000006C502000405F404073
:100290004F50505048662130180C030000000000F9
:1002A00000000000000000003C207CFCFEFEFEFE82
:1002B0007EE272FBFFFFFFFFC000000000000000B5
:1002C000000000000000000000000007FFFFFFFF2B
:1002D000000000FFFFFFFFFFFFC000000000000064
:1002E0000000000000000000F8000000013F3F3F58
:1002F0003830181B1F1F1F1F1F0F000000000000B9
:1003000000000000000000001F00307CFEFEFFE740
:10031000C7C78700000000000000000000000000C8
:100320000000000000000000000078707071797912
:100330003F3F1F0F200000000000000000000000F1
:1003400000000000C0FCFCFCFCFCFC7C7C7C3C3C19
:100350003C3E3E3E7E7E7E7EFE00000000000000B1
:1003600000000000FFFFFFFF0F0100000000000081
:1003700070F0F0E0E0C080FCFF0000000000000032
:1003800000000000FFFFFFFFFEF0E0C0C0800000A3
:10039000000001010103070F3F0000000000000002
:1003A00000000000FFFFFFFF7F03010307070706B0
:1003B0000000000000000080E000000000000000DD
:1003C000000000001F1F1F1FDFFEFEFEECECECEC28
:1003D000ECCCCCCEC60607070700000000000000EA
:1003E00000000000000000C0FFFFFFFFFFCF4777C5
:1003F00077070FFF0F000000000000000000000062
:10040000000000000000001F3FFFFFFFFFE0E6EFDD
:10041000F7E0E0FF00000000000000000000000026
:10042000000000000000000000010101C3C3E3FB65
:10043000C3C3030300000000000000000000000030
:10044000000000000000000000000000003C7F638E
:10045000000000000000000000000000000000FD9F
:10046000377A585A000004E6D6B446020021011635
:10047000000000742FE5A3E002F2011A5D003D8840
:100480008986D3DC0AE842C324925842588FD8E7C1
:100490005CA0D2616E26E888019A676C7887BC8D73
:1004A0003709EA0E1459A53C79858BB59E1F58492A
:1004B0002DD9783875DD1B2F81077F12999F3EE873
:1004C000A9457C94B09649851531DBF01EE6FBF01A
:1004D0004F39B6E4BF43E1546EE31AAB08AE369B26
:1004E000BF4540AE6A16A7101F68C17F46C90DD927
:1004F000C483F0231BB4EED518ACF5788E39D3AE97
:100500005E6399A67EF35F942449D9A07DF1DAE178
:10051000D6E999B0009C840B8FF5E587FE87978616
:100520006D6162399C04E0FB6260933FEE3FDDE366
:10053000FFE1F23111B56956312F04C71BF389056C
:100540009A28CC7F5B90695B9E1881C00CBCEB7DC8
:100550006EC6B0C1141D3D290E9AFA0280B2E8DEC3
:10056000D05438DF3AD3BB3176587A010D72450C3E
:1005700045830BBB5A9BB840DC49B940F01D6DA6C2
:10058000450180CB40C9F31B63F1598BB603EF5093
:10059000C3463127B028B70000000031A9830859AD
:1005A00021165D0001B602F3050000770C1EE7B1CD
:1005B000C467FB020000000004595AAA00A9004EBB
:1005C000004B0029001E001F0020002100220023F4
:1005D00000A8002B0014001A000800150017001CCA
:1005E000001800E10004001600070009000A000BD3
:1005F000000D000151E0002C00E60019000500117B
:10060000000000005C3A003B003C003D003E003F23
:1006100000400001004300440045000100010001CA
:1006200000010001000100010001000100010001C2
:1006300000010001000100010001000100010001B2
:10064000000000010001004B06780EAA0E00000217
:100650000002004706780EAA0E0000030001004CBD
:1006600006780EAA0E0000040002003106780EAAD9
:100670000E7407050001004D06780EAA0E00000654
:100680000002003306780EAA0E000007000200499F
:1006900006780EAA0E0000080001004E06780EAA89
:1006A0000E0000090002003506780EAA0E4F070A58
:1006B0000002003706780EAA0E4F070B0002003921
:1006C00006780EAA0E4F070C0002003B06780EAA11
:1006D0000E4F070D0002003D06780EAA0E4F070EC2
:1006E0000002003F06780EAA0E4F070F00020041DD
:1006F00006780EAA0E4F07100002004306780EAAD5
:100700000E4F07110002004506780EAA0E4F071281
:100710000002004F06780EAA0E00001300020051DE
:1007200006780EAA0E0000140001005306780EAAE7
:100730000E0000150000000000CC060119000000AA
:10074000AF00AE09025B00030100A0FA090400003B
:1007500001030101000921110100012240000705E8
:1007600081030800010904010002030000000921BF
:100770001101000122220007058203200001070564
:100780000303200001090402000103000000092105
:1007900011010001228100070584032000011201DC
:1007A0000002000000089EDC55D101000102030197
:1007B0001C037600690061006C003A006600360098
:1007C0003400630032006200330063000000240341
:1007D00044006900730073006100740069007300D5
:1007E000660061006300740069006F006E003300F2
:1007F0003000000010034400430050004500640036
:100800006900740000000403090411241FBECFEF27
:10081000DAE0DEBFCDBF04B603FE18C08091320718
:1008200090913307A0913407B09135078730904BF2
:10083000A740B04B59F41092320710923307109230
:10084000340710923507E0E0F8E3099511E0A0E0E5
:10085000B1E0E4E0F4E702C005900D92A239B107DF
:10086000D9F727E0A2E9B1E001C01D92A233B20797
:10087000E1F70E942A2F0C94D5390C940000E8ED82
:10088000F0E080818E7F80831092E2001092DA0087
:100890001092E100A0EEB0E08C9181608C93808199
:1008A0008F77808319BCA7EDB0E08C918E7F8C93FD
:1008B00080818F7E80831092180708952091E40034
:1008C0003091E50095E6A9012091EC00822F81701E
:1008D00020FF06C08091E80080FF06C080E00895F8
:1008E0002091E80022FD1AC080912507882389F015
:1008F000853089F08091EB0085FD0FC02091E400E8
:100900003091E50042175307F9F29150E1F684E087
:10091000089582E0089583E0089581E00895EF92BC
:10092000FF920F931F93CF937C018B010E945E0473
:10093000C82F811117C08091E80085FD0BC0809100
:10094000E8008E778093E8000E945E04882399F384
:10095000C82F08C0F70181917F018093F1000150F9
:10096000110949F78C2FCF911F910F91FF90EF90B4
:1009700008958091270787FF13C08091E80082FFC8
:1009800006C08091E8008B778093E80004C08091D6
:1009900025078111F2CF0895809125078823D9F387
:1009A0008091E80080FFF8CF8091E8008E77ECCF4F
:1009B000982F9093E900242F762F50E0891731F07B
:1009C0007091EC002091ED005091F00021FD07C0E6
:1009D0009F5F973071F78093E90081E0089530912F
:1009E000EB003E7F3093EB003091ED003D7F309384
:1009F000ED003091EB0031603093EB007093EC0030
:100A00002093ED005093F0002091EE0027FDE0CF01
:100A100080E00895CF92DF92EF92FF920F931F93A1
:100A2000CF93DF93C8EDD0E088818F7E8883E7ED98
:100A3000F0E080818160808384E082BF81E08093E8
:100A4000180788818E7F888302EE10E0F8011082FB
:100A50001092DA0081EEC82ED12CF6011082888126
:100A60008F77888388818068888388818F7D888359
:100A700019BC109225071092260710922407109295
:100A8000230790EEE92EF12CF70180818B7F808384
:100A900088818160888342E060E080E00E94D80421
:100AA000F60180818E7F8083F80180818160808360
:100AB000808188608083F70180818E7F8083888138
:100AC00080618883DF91CF911F910F91FF90EF900C
:100AD000DF90CF900895FC0180912D0790912E0713
:100AE00086179707A0F06115710529F49091E80029
:100AF0009E779093E80090E06115710551F4911193
:100B000008C08091E80082FF34C080E00895BC01F5
:100B1000F2CF809125078823C1F18530C1F1809102
:100B2000E80083FD30C08091E80082FDEACF80912B
:100B3000E80080FFE1CF8091F3002091F200382F90
:100B40006115710519F02830310558F091E0283011
:100B5000310509F090E02091E8002E772093E8001D
:100B6000CBCF81918093F100615071092F5F3F4F8E
:100B7000E7CF80912507882341F0853041F08091AF
:100B8000E80083FFBECF81E0089582E0089583E00E
:100B90000895089580911A0708952FB7F8946091E9
:100BA00011077091120780911307909114072FBFBE
:100BB000089520910E0730910F072817390771F01B
:100BC00090930F0780930E07E0910C07F0910D07AB
:100BD000309721F00084F185E02D0994089520914B
:100BE0000A0730910B072817390771F090930B070C
:100BF00080930A07E0910C07F0910D07309721F0E0
:100C00000680F781E02D09940895E0910C07F0919A
:100C10000D07309721F00190F081E02D099480E0DC
:100C20000895CF93DF93EC0140912606509127065B
:100C300060912806709129062FB7F89480911107CA
:100C400090911207A0911307B09114072FBF841B36
:100C5000950BA60BB70B843F9140A105B10518F584
:100C60008091260690912706A0912806B09129062A
:100C70008093220690932306A0932406B093250622
:100C800084EF91E0A0E0B0E080931E0690931F06F1
:100C9000A0932006B0932106D0932E06C0932D0674
:100CA000DF91CF9108950E94CD0560932206709345
:100CB0002306809324069093250682E390E0A0E02B
:100CC000B0E0E2CFFC018481862351F49281992324
:100CD000B9F06923808583FF05C081E061110FC0F1
:100CE00080E00895892F8F7092959F70982B862FA2
:100CF0008F7062956F70682B81E09613F1CF089525
:100D000081E0FDCF452B39F0682381E06F3F09F08A
:100D100080E08170089581E0FCCFDC0160911A06CB
:100D200080911B06962F891301C00895292F30E06A
:100D3000F901EE0FFF1FEE5EF94F408151814A1716
:100D40005B07A1F487E08A9FA0018B9F500D1124BF
:100D500046525A4F81E0FA0184839613E6CF2F5F03
:100D60003F4F2370332720931A0608952F5F3F4F7C
:100D7000922F9370D8CF1092770510927605EAEDF6
:100D8000F5E08581811102C014821682379686E0D3
:100D9000E231F807B1F70895AF92BF92CF92DF9298
:100DA000EF92FF920F931F93CF93DF938FEF9FEFFD
:100DB0004430510508F468C04091490541FB88273B
:100DC00080F990E0880F991F42FB002700F910E09E
:100DD000000F111F000F111F802B912B40FBCC2403
:100DE000C0F8D12C8C299D2943FB222720F9C22F42
:100DF000E0E0DE2F53E0CC0FDD1F5A95E1F78C2B9E
:100E00009D2B44FBAA27A0F9B0E0E4E0AA0FBB1F8A
:100E1000EA95E1F78A2B9B2B45FBEE27E0F9F0E002
:100E2000A5E0EE0FFF1FAA95E1F78E2B9F2B46FB47
:100E3000222720F930E0B6E0220F331FBA95E1F700
:100E4000822B932B47FB222720F930E03695322F57
:100E5000222737952795822B932B20914A05322FF5
:100E60003170F32EF92A26952170B22EBB0CA82ED4
:100E7000BF28C501BB0CAA0BBB0BFB018083918370
:100E8000A283B38390E080E0DF91CF911F910F9117
:100E9000FF90EF90DF90CF90BF90AF900895E1E387
:100EA000F6E0848195812AE030E0B9010E94203982
:100EB00060931F01868180931E01828580931D01AE
:100EC000848580931C0186859785B9010E9420390D
:100ED00060931B01808980931A0182898093190194
:100EE000848980931801089580913106909132068B
:100EF0009093210180932001089581152CE592079C
:100F000041F42091160130911701232B11F490E048
:100F100080E0089590915404803F59F480915504E5
:100F200087FF0DC01092550491110BC010924C0414
:100F300008C0813F81F48091550418169CF39923D1
:100F400081F08091560490915704892B09F064C078
:100F500010924B040895823F49F497FFF0CF10920E
:100F60005404809155048111ECCFE0CF833F19F4F4
:100F70001916ACF3E4CF20915604893F29F41216D8
:100F8000F4F610925604DBCF8A3F19F427FFD7CF2F
:100F9000F8CF209157048B3F29F427FFD0CF109230
:100FA0005704CDCF8C3F19F41216CCF3C8CF843F31
:100FB00031F4809153048E7F80935304C0CF853FDA
:100FC00021F4809153048D7FF7CF863F21F48091E7
:100FD00053048B7FF1CF873F21F480915304877FA7
:100FE000EBCF883F21F4809153048F7EE5CF8D3F76
:100FF00031F480914D048E7F80934D04A0CF8E3FBD
:1010000021F480914D048D7FF7CF8F3F09F097CF6A
:1010100080914D048B7FF0CF089580914D0480FF27
:101020000CC06091190170E075956795759567958D
:101030006115710549F1862F089581FF06C0609101
:10104000190170E075956795F3CF6091190182FDE4
:101050000BC090914B049923A1F0609118018091ED
:101060001901961738F0682F70E06038710500F3A9
:101070008FE70895899FC001112470E00E943439E0
:10108000F4CF61E070E0D7CF81E0089580914D0406
:101090006091390670913A0680FF16C020911D01BB
:1010A000269FC001279F900D1124BC01769567955E
:1010B000769567956038710508F043C06115710534
:1010C00009F441C0862F089581FF0BC020911D01B6
:1010D000269FC001279F900D1124BC01769567952E
:1010E000E9CF82FF09C080911D019B01829FB00161
:1010F000839F700D1124DECF20914C042223D1F266
:1011000090911C0180911D01482F50E0291748F053
:10111000CB01849FB001859F700D949F700D1124A9
:10112000C9CF289F90011124269FA001279F500D11
:10113000369F500D1124692F70E0CA010E9420399A
:10114000B9CF8FE7089581E00895803F31F40E9480
:1011500046088195809355040895813F19F40E94B3
:101160004608F8CF823F31F40E944608819580936B
:1011700054040895833F19F40E944608F8CF893F2C
:1011800029F40E940D088093560408958A3F21F4A3
:101190000E940D088195F7CF8B3F31F40E940D0816
:1011A00081958093570408958C3F19F40E940D088F
:1011B000F8CF843F31F480915304816080935304CD
:1011C0000895853F21F4809153048260F7CF863FD4
:1011D00021F4809153048460F1CF873F21F4809102
:1011E00053048860EBCF883F21F4809153048061E1
:1011F000E5CF8D3F31F480914D04816080934D04A3
:1012000008958E3F21F480914D048260F7CF8F3F87
:10121000B9F780914D048460F1CF80E00895F8948F
:10122000E82FE295EF70F0E031A1282F2F7081E0D8
:1012300090E001C0880F2A95EAF7982F90959323A4
:1012400091A392A1892B82A3789408959091490546
:1012500092FF06C0282F28712830F9F4877F846018
:1012600093FF06C0282F28712831F1F4877E84610E
:1012700020914A0520FF06C0382F38713830D9F444
:10128000877F816021FF06C0282F28712831D1F483
:10129000877E816194FD877E0895282F24712430F4
:1012A000F9F68B7F8860DCCF282F2471243101F779
:1012B0008B7E8861DDCF382F3171313019F78E7F09
:1012C0008860E0CF282F2171213121F78E7E88613F
:1012D000E1CFCF93DF93EC0182389105A9F1D8F5E6
:1012E0008133910509F496C048F58932910509F4D6
:1012F0008AC08A9709F495C0C11521E5D20708F084
:10130000BCC0C11530E5D30708F014C1C83ED105F3
:1013100008F09CC0C03ED10560F5C83AD10508F080
:1013200087C0C53AD10508F0FDC0C130D10509F12B
:101330002097F9F0C430D105E0F440C08533910521
:1013400009F45AC0C997C1F680914905837089F0A4
:10135000C0EED0E00EC0833E910599F170F4803E5E
:10136000910501F1823E910539F68091490582FD92
:1013700021C0CE01DF91CF910895863E910561F1A4
:10138000873E910571F1843E910509F0B5CF8091BA
:101390004A0581FFEECF80914905C7EED0E084FD7C
:1013A0000DC0E7CF8091490580FD12C190914A059B
:1013B00090FFDFCFC3EED0E084FFDBCFD0E0C0E012
:1013C000D8CF8091490582FD06C190914A0590FDD4
:1013D000BFCF84FFCECFF2CF8091490583FDDDCF13
:1013E000C8CF8091490583FDF9C090914A0591FFCE
:1013F000F0CFC4EED0E0BDCF8091490585FFB9CFD5
:10140000C9E2D0E0B6CF8091490585FFB2CFC5E3F0
:10141000D0E0AFCF8091490586FFABCFCAE2D0E0E4
:10142000A8CF8091490586FFA4CFC1E3D0E0A1CF2A
:10143000CF3BD10518F6C85AD0E0CC0FDD1FC05DF8
:10144000DE4F0990D881C02DD46493CFC11540E2FE
:10145000D40758F4C11581E0D80708F08ACFC03FFF
:10146000D10508F4ABCFD06584CFC11590E4D9077E
:1014700008F4A4CFDF70D06A7CCFC11525E5D20770
:1014800000F5C11534E5D30708F08AC0C11543E55E
:10149000D40708F071C0C11582E5D80708F467C009
:1014A000CE018370992721E030E002C0220F331F64
:1014B0008A95E2F7C695C69580E2C89FE00111249F
:1014C00052C0C11599E5D907A8F4C11528E5D2077E
:1014D00008F06BC0C11536E5D30708F06FCF8C2F2D
:1014E0000E942609C82FD0E0DC2FCC27CC27DF7143
:1014F000D0623FCFC1154AE5D40708F45BC0CE01E6
:1015000090568115904208F059CF8D2F8F710E940F
:10151000260990E0982F882788279F719C012C2B03
:10152000E901E6CFC55AD0E0C35DDE4FC881D0E007
:10153000D0641FCFCE01E4E096958795EA95E1F758
:1015400083702C2F26952695237040E2249F9001CE
:101550001124382B8C2F8370C1E0D0E002C0CC0F57
:10156000DD1F8A95E2F7C22BD32BDC6802CFDC2F7C
:10157000CC27C16FD06AFDCECE018370992721E0C0
:1015800030E002C0220F331F8A95E2F7C695C69558
:1015900090E2C99FE0011124C22BD32BDA68E9CE77
:1015A000DC2FCC27C46FD06AE4CEDC2FCC27C06FF1
:1015B000D06ADFCE8C2F8F700E94260934E0D6953A
:1015C000C7953A95E1F7CF709C2FEC01D069D1CE49
:1015D000C9E3D0E0CECEC2EED0E0CBCEC6EED0E0B6
:1015E000C8CE80910502882331F010920502109236
:1015F0000402109203020895809590913107982378
:101600009093310708958095909151059823909378
:101610005105089590915105892B809351050895A6
:101620001092FA011092F9011092F8010895809138
:10163000F70181111092F7010895E6E9F1E0919127
:10164000891303C0DF0111971C9291E0EC39F9076F
:10165000B1F70895A6E9B1E0EFEF90E02D91821780
:1016600051F0EF3F19F4211101C0E92F9F5F96302F
:10167000A9F7EF3F09F408950E2E000CFF0BEC566E
:10168000FE4F828308952091F6019091B5012913B0
:1016900002C080E0089530E0F90153E0EE0FFF1F33
:1016A0005A95E1F7EA54FE4F5181561306C0508116
:1016B000581303C05281541304C02F5F3F4F27704B
:1016C000E6CF81E008958091F6019091B5019813DD
:1016D00001C008958F5F8770FACF9E3F49F1990F3F
:1016E000990F990FE92FE80F9E2F9770E695E695D1
:1016F000E69583E0E89FF0011124EF55FE4F50E09E
:1017000040E080E0219130E0092E02C03695279517
:101710000A94E2F721703327042E01C0220F0A94A5
:10172000EAF7822B4F5F5F4F4330510559F7089519
:1017300080E008959E3F69F1990F990F990FE92F65
:10174000E80F8E2F877041E001C0440F8A95EAF7B9
:10175000E695E695E69583E0E89FF0011124EF55C4
:10176000FE4F30E020E070E05191DF011197CB0196
:10177000022E02C0969587950A94E2F781708195B2
:101780008527842385278C932F5F3F4F2330310596
:1017900059F7089592959F70963091F058F4925FA2
:1017A0009F70923058F4803F19F030F4883E30F446
:1017B00081E008959A5FF4CF843FD1F380E00895EB
:1017C000883EB0F3813FD1F7F3CF9C013A952115C4
:1017D0003F4150F5FC01EE27F170BC0166277270A5
:1017E000AC01442754709C012227387094FF0EC02E
:1017F00080E1EF2B09F480E0672B09F08062452B34
:1018000009F08064232B89F08068089581E0EF2B34
:1018100009F480E0672B09F08260452B09F08460B1
:10182000232B19F08860089580E00895CF92DF920D
:10183000EF92FF920F931F93CF93DF936C017B0185
:1018400064E670E088E70E941F38EC0197FD12C043
:1018500010E000E0F601E00FF11F849164E670E013
:101860000E949938EC01892B29F40F5F1F4F0E1548
:101870001F0581F70E941C39CE01DF91CF911F9186
:101880000F91FF90EF90DF90CF90089580914F05DA
:1018900090915005911103C091E089270895882304
:1018A00069F062E070E081E497E00E94160C892BF9
:1018B00019F080914F05089510924F0580914F05C2
:1018C000EBCFCF93C0914F05809150058823D1F085
:1018D0000E94CD05605A75418F4F9F4F60934B0515
:1018E00070934C0580934D0590934E05C11108C02F
:1018F00062E070E08FE397E00E94160C892B29F0DC
:10190000C0914F058C2FCF91089581E080934F05B2
:10191000F7CF809315077093170760931607809190
:1019200025078430F9F48093E9008FEF9091E80067
:10193000815095FD06C095ED9A95F1F70000811153
:10194000F5CF8091E80085FF0DC050E040E063E0F6
:1019500070E085E197E00E948F048091E8008E7727
:101960008093E8000895BC0184E00C94890CBC01CC
:1019700083E00C94890C9C0184E08093E9009FEF44
:101980008091E800915085FD06C085ED8A95F1F7BC
:1019900000009111F5CF8091E80085FF0CC050E068
:1019A00040E066E070E0C9010E948F048091E80089
:1019B0008E778093E8000895CF93DF93EC0181E068
:1019C0008093E9008FEF9091E800815095FD06C06B
:1019D00095ED9A95F1F700008111F5CF8091E8001F
:1019E00085FF14C050E040E068E070E0CE010E9446
:1019F0008F048091E8008E778093E80088E0FE01F4
:101A0000ABE1B7E001900D928A95E1F7DF91CF91BC
:101A1000089581E08093E00080E28093D8001092E6
:101A2000C9008FE19EE40197F1F700C0000087E054
:101A300090EBDC018093320790933307A093340737
:101A4000B093350788E19CE00FB6F894A895809391
:101A500060000FBE90936000FFCF019708F40895D7
:101A6000EFE9FFE03197F1F700C00000F6CF0F93E8
:101A70001F93CF93DF9301E316E0CFEAD0E0CE01CE
:101A80000E948B39F80181938F012196C33DD105C6
:101A9000B1F7CDE4D6E0FE0185919491009711F065
:101AA000FC0109952C96F7E0C934DF07A1F7DF9117
:101AB000CF911F910F9108950F931F93CF93DF93B1
:101AC000823000F561111EC024E0829F8001112444
:101AD00050E0440F551F040F151F09551F4FC80133
:101AE0000E948B39C82FD0E0DC2FCC27C80101968B
:101AF0000E948B399E01282BC901DF91CF911F9144
:101B00000F91089590E080E0F8CF0F931F93CF934B
:101B1000DF93823038F5643028F5483018F520E13D
:101B2000629F8001112450E0440F551F040F151FC0
:101B300030E4839FC0011124080F191FC801879644
:101B40000E948B39C82FD0E0DC2FCC27C8018896A3
:101B50000E948B399E01282BC901DF91CF911F91E3
:101B60000F91089590E080E0F8CF462F209147052F
:101B700030914805232B91F47E3F39F46E3F71F488
:101B800080914505909146050895823038F474306F
:101B900028F4683018F4672F0C94850D90E080E0ED
:101BA0000895CF92DF92FF920F931F93CF93DF930D
:101BB0006C010091300780912F07082BC7E0D0E01F
:101BC00010E0FC2EC8010C2E02C0959587950A9452
:101BD000E2F780FD0CC02197A0F7F12C8F2DDF914B
:101BE000CF911F910F91FF90DF90CF900895B60194
:101BF0008C2F0E94B50D0E946909019761F3EECF09
:101C0000CF93DF93EC010E94D10DBE010E94B50D70
:101C1000DF91CF910C946909FC018681978100972F
:101C200021F00E9469090C94CA0B808191810E9465
:101C3000000EF9CF1F93CF93DF9300D000D00F9207
:101C4000CDB7DEB749835A8389819A816623B9F07B
:101C50002223A9F00E94D10D182F682F89819A8123
:101C60000E949A0B69817A81812F0F900F900F90BB
:101C70000F900F90DF91CF911F910C94B50D0E94A2
:101C80006D0B182FEFCFFC01262F868197810097CF
:101C900039F4408151816281738184810C941A0EE0
:101CA000089583E290E00E948B398D3A89F484E2B2
:101CB00090E00E948B39833759F485E290E00E94CE
:101CC0008B3991E0843209F090E0892F817008957A
:101CD00080E0FCCFCF9384E090E00E948B39C82F46
:101CE00082E290E00E948B39982F8C2FCF9108953B
:101CF000DB01FC013296259134914217530758F0CD
:101D0000FC01349665917491A901CD010E946B3953
:101D100090E080E008958FEF9FEF08950F931F9359
:101D2000CF93DF9301E316E0CFEAD0E0CE010E942B
:101D30008B39F80161918F01681719F0CE010E946B
:101D400099392196C33DD10589F7DF91CF911F9134
:101D50000F910895DA019C012E5F3F4FF9014591E3
:101D60005491F90125913491A217B30758F0FC0161
:101D70003496859194910E946B390E948E0E90E06A
:101D800080E008958FEF9FEF0895CF93DF93C3EC2A
:101D9000D1E060E0CE010E9499392196C11584E01E
:101DA000D807B9F7DF91CF9108951F93CF93DF93B1
:101DB000122F8230D8F4611119C04230B8F494E087
:101DC000899FE001112450E0440F551FC40FD51F17
:101DD000C955DF4F632FCE010E949939612FCE0183
:101DE0000196DF91CF911F910C949939DF91CF919A
:101DF0001F9108950F931F93CF93DF938901823032
:101E000058F5643048F5483038F501152CE51207CF
:101E100031F42091160130911701232BE9F090E164
:101E2000699FE001112450E0440F551FC40FD51FD6
:101E300020E4829FC0011124C80FD91F612FCE0159
:101E400087960E949939602FCE018896DF91CF91B5
:101E50001F910F910C949939DF91CF911F910F91A0
:101E60000895CF93C82F6FEF81116DEA83E290E060
:101E70000E9499396FEFC11163E784E290E00E94FC
:101E800099396FEFC11164E285E290E0CF910C9433
:101E90009939CF93C92F682F84E090E00E94993937
:101EA0006C2F82E290E0CF910C9499399B0188309D
:101EB00070F49AE0899FB00111246D527F4F4AE07F
:101EC00050E0C9010E947B3990E080E008958FEFD7
:101ED0009FEF08958F929F92AF92BF92CF92DF9221
:101EE000EF92FF920F931F93CF93DF93CDB7DEB79F
:101EF0002A970FB6F894DEBF0FBECDBF0AE516E0F5
:101F0000F12CE12C88E8C82E80E2D82E92EBA92E85
:101F100090E2B92E20EA822E2FE1922EF801D18292
:101F2000C082B382A28295828482F58AE48ABE014D
:101F30006F5F7F4F8E2D0E94560F892B29F4898564
:101F40009A85F801938B828BFFEFEF1AFF0A0A5EE6
:101F50001F4F88E0E816F10409F72A960FB6F894A7
:101F6000DEBF0FBECDBFDF91CF911F910F91FF90CC
:101F7000EF90DF90CF90BF90AF909F908F9008959B
:101F80008F929F92AF92BF92CF92DF92EF92FF9289
:101F90000F931F93CF93DF93CDB7DEB72A970FB67A
:101FA000F894DEBF0FBECDBF0DEC14E08BEBC82E56
:101FB00084E0D82E93E7E92EFF24F39427E0922EB5
:101FC0003AEBA32E34E0B32E88248394D6010D93EC
:101FD0001D936D014AE050E0B701CE0101960E94C9
:101FE0007B39F8013896DF01892D1D928A95E9F732
:101FF00089819A81D80111969C938E938F81129634
:102000008C9312978D8113968C93139788851496D1
:102010008C931497898515968C9315978B819C8149
:1020200017969C938E93169718961C9218978A85EC
:1020300087FF4BC01E961C921E921D9780FF03C007
:10204000D80118968C9281FF04C0F80190859260A7
:10205000908782FF07C0D80118969C9118979460CA
:1020600018969C9383FF04C0F80190859860908730
:1020700084FF07C0D80118969C9118979061189614
:102080009C9385FF04C0F801808580628087015F92
:102090001F4FFAE0EF0EF11C83ECE81681E0F80622
:1020A00009F094CF2A960FB6F894DEBF0FBECDBFCD
:1020B000DF91CF911F910F91FF90EF90DF90CF9024
:1020C000BF90AF909F908F900895F801B686A58637
:1020D000B5CFCF92DF92EF92FF920F931F93CF93E2
:1020E000DF93CDB7DEB72A970FB6F894DEBF0FBEE9
:1020F000CDBFEAE6F4E080E5DF011D928A95E9F7BD
:10210000EAEDF5E088E3DF011D928A95E9F78AE6BA
:10211000C82E84E0D82E7F0103E211E0F701D182BE
:10212000C0824AE050E0B801CE0101960E947B399E
:1021300088E0FE013196D60101900D928A95E1F773
:1021400089859A85D70113969C938E931297BAE04E
:10215000CB0ED11CE7E0EE0EF11C065F1F4F0337DC
:10216000F1E01F07D9F62A960FB6F894DEBF0FBE2E
:10217000CDBFDF91CF911F910F91FF90EF90DF9036
:10218000CF9008951F920F920FB60F9211242F93A4
:102190003F934F935F936F937F938F939F93AF93EF
:1021A000BF93EF93FF938091E10082FF09C080917C
:1021B000E20082FF05C08091E1008B7F8093E10007
:1021C0008091DA0080FF24C08091D80080FF20C079
:1021D0008091DA008E7F8093DA008091D90080FFB1
:1021E0009DC080E189BD82E189BD09B400FEFDCFBB
:1021F00081E08093250780911807811109C00E9412
:102200003F040E940A058091E20084608093E2000E
:102210008091E10080FF17C08091E20080FF13C031
:102220008091E2008E7F8093E2008091E2008061E5
:102230008093E2008091D80080628093D80019BC1E
:1022400085E0809325078091E10084FF2BC0809179
:10225000E20084FF27C080E189BD82E189BD89B5A4
:10226000982F917080FFFBCF8091D8008F7D809355
:10227000D8008091E1008F7E8093E1008091E200A0
:102280008F7E8093E2008091E20081608093E20083
:1022900080912607882309F447C084E080932507AE
:1022A000809125078091E10083FF27C08091E200A3
:1022B00083FF23C08091E100877F8093E10082E06B
:1022C00080932507109226078091E1008E7F8093EE
:1022D000E1008091E2008E7F8093E2008091E20035
:1022E00080618093E20042E060E080E00E94D804D8
:1022F0008091F00088608093F000FF91EF91BF9192
:10230000AF919F918F917F916F915F914F913F918D
:102310002F910F900FBE0F901F90189519BC10921F
:1023200025071092180774CF8091E30087FD93E092
:1023300090932507B5CF78941F921FB61F92112452
:102340008F939F93AF93BF93809111079091120742
:10235000A0911307B09114070196A11DB11D8093A0
:10236000110790931207A0931307B0931407BF911E
:10237000AF919F918F911F901FBE1F9018959C0148
:102380004FB7F8948091110790911207A09113070D
:10239000B09114074FBF821B930B08952FB7F89489
:1023A0008091110790911207A0911307B091140723
:1023B0002FBF08950E94CE119C01909154048091EA
:1023C0005504982B21F030935104209350049091A0
:1023D000560480915704982B21F030934F0420939A
:1023E0004E04E0910C07F0910D07309749F082E020
:1023F000809352040480F581E02D82E594E00994F5
:102400000895BF92CF92DF92EF92FF920F931F93A6
:10241000CF93DF9300D000D0CDB7DEB719821A82F8
:102420001B821C828EE5C82E81E0D82E10E000E0D1
:10243000EE24E394F12CF60181916F018F3F09F4B2
:1024400046C0F894E82FE295EF70F0E021A18F707C
:10245000A70102C0440F551F8A95E2F7CA01922FC7
:10246000982B91A392A18095892382A3789400C090
:10247000E2E6F1E0B12C31E021912F3F09F46CC08C
:10248000A22FA295AF70B0E090968C9190E02F7043
:1024900002C0959587952A95E2F780FD5DC0832F50
:1024A000B82A330F51E0EA36F50731F7F6013197D4
:1024B00080818F3F11F00E940F0980EA8A95F1F721
:1024C000E1E0F0E0EC0FFD1FE00FF11FB0820F5FC5
:1024D0001F4F0430110509F0AECF44E050E0BE01BB
:1024E0006F5F7F4F89E092E00E945E3911E00097B4
:1024F00009F410E0892B91F189819A81AB81BC812B
:102500008093090290930A02A0930B02B0930C02ED
:1025100081E0809308020E94CE119093070280937D
:10252000060280910602909107020E94BF11059752
:10253000C8F0809109028093470480910A02809339
:10254000480480910B028093490480910C0280938F
:102550004A041092080206C080E0A2CF80910802CF
:102560008111DFCF812F0F900F900F900F90DF918F
:10257000CF911F910F91FF90EF90DF90CF90BF9080
:102580000895CF93C82F80914A0582FD0CC0809199
:1025900005028C1741F00E94CE11909304028093A3
:1025A0000302C0930502CF91089580913306909164
:1025B0003406892B89F00E94CE11209103023091BC
:1025C0000402AC01421B530B81E020913306309191
:1025D00034064217530708F480E081700895809113
:1025E000510590913107892B8093940180910502C8
:1025F000882309F18091330690913406892B29F0C4
:102600000E94D51281110E94F10A8091940190914B
:102610000502892B8093940120E086E991E0FC017A
:102620003191CF0131112F5FF1E08C399F07B9F75C
:1026300021110E94F10A80912A06809590919401BF
:10264000892390912B06892B8093940148E050E0D8
:102650006BEF71E084E991E00E945E39892BA9F06B
:1026600088E0E4E9F1E0ABEFB1E001900D928A95EA
:10267000E1F7E0910C07F0910D07309731F00280FF
:10268000F381E02D84E991E009940895EF92FF929F
:102690000F931F93CF93DF93EC018A85811134C090
:1026A000EB80FC8087E5F81A26E12E9DC0012F9D66
:1026B000900D1124DC01A65AB94F1496ED91FC91AE
:1026C0001597309731F054966D917C91805A994FBF
:1026D000099586E18E9D80018F9D100D1124065A6B
:1026E000194FF80187810E94030BF80180850E9431
:1026F000FC0A0E94EF12188219861B861E821D8218
:102700001092590610925806DF91CF911F910F91A8
:10271000FF90EF900895CF93DF93EC0189898111A9
:1027200018C081E0898B8F810E940A0B809131074C
:102730009885892B809331070E94EF12EA81FB81F3
:10274000309739F06C897D89CE010696DF91CF9163
:102750000994DF91CF91089580912201877F809322
:10276000220182E00E94FC0A8091220184FF06C0BF
:102770008F7E8093220182E00E940A0B80912201C9
:1027800085FF06C08F7D8093220180E20E940A0BA4
:102790000C94EF1290E080E00E94EF0590E080E062
:1027A0000E94D905109231070E94EF1286E0E2E5FF
:1027B000F4E0DF011D928A95E9F710924C04109223
:1027C0004B0410924D040C94DA11809330070C9452
:1027D000CA1380913007982F9670963019F488604C
:1027E0000C94E513877FFCCF21E030E001C0220F7D
:1027F0008A95EAF720958091300782230C94E5139F
:102800009091FA01809589238093FA01282F2770EF
:1028100091F4282F082E000C330B9217130659F051
:1028200090914A0592FD07C08595859585950E94F2
:10283000F4130C94100B089590914A0592FB2227F3
:1028400020F9281769F080FB92F990934A0580914E
:10285000490590914A050E94490F82E00C940014AA
:10286000089521E030E001C0220F8A95EAF78091B7
:102870003007822B0C94E51390914A0592FD10C00D
:1028800098E0899F90011124622B6093FA010E94C5
:1028900031140E94CE119093F9018093F8010895AC
:1028A0000C94311480932F070C94CA131092510585
:1028B000E6E9F1E086E0DF011D928A95E9F70C94E4
:1028C000CA131F93CF93DF93CDB7DEB7AA970FB686
:1028D000F894DEBF0FBECDBF87E297E02091F100F4
:1028E000DC012D93CD01B7E08F329B07B9F78091C2
:1028F0002807833009F472C0B8F4813009F449C064
:10290000823009F4B3C08091E80083FF96C28091C1
:102910002707909128079A3008F08FC2E92FF0E03E
:10292000E952F64C0C9448398A3009F48EC08B3049
:1029300009F471C0893039F780912707813219F77E
:1029400080912B0790912C07009711F00297D9F6F0
:102950008091E800877F8093E8008091E80082FF03
:1029600038C09091F3008091F200029731F4809189
:10297000F100813011F0863021F48091F1008093D4
:102980001A078091E8008B778093E8000E94B904D1
:10299000BACF80912707813A09F0B5CF8091E8003E
:1029A000877F8093E80080912B0790912C07892BDB
:1029B00061F468E08BE197E070E00E946B05809124
:1029C000E8008B778093E8009ECF60E090E080E0A5
:1029D000F3CF809125078111C0CF95CF8091270734
:1029E000813A09F090CF80912B0790912C07892B89
:1029F00009F089CF8091E800877F8093E80080917B
:102A0000E80080FFFCCF809124018093F100809149
:102A1000E8008E77B9CF80912707813209F073CF14
:102A200080912B0790912C07892B09F06CCF809116
:102A3000E800877F8093E8000E94B904809129070D
:102A4000809324010E9456145ECF80912707813223
:102A500009F059CF8091E800877F8093E8000E94B9
:102A6000B90480912A07809319074DCF80912707D9
:102A7000813A09F048CF8091E800877F8093E80091
:102A80008091E80080FFFCCF80911907BECF80388D
:102A900099F0823809F0D1C180912B078F7087306F
:102AA00008F0CBC18093E9008091EB0085FB88277B
:102AB00080F91092E90006C08091230790912407C5
:102AC000911182609091E800977F9093E800809345
:102AD000F1001092F1008091E8008E77AAC188235E
:102AE00009F498C1823009F0A8C1809129078111A9
:102AF0009BC180912B078F702FEF280F263008F095
:102B00009CC18093E9002091EB0020FF8DC19330A0
:102B100031F48091EB0080628093EB0085C190914D
:102B2000EB0090619093EB0021E030E001C0220FB8
:102B30008A95EAF72093EA001092EA008091EB0070
:102B40008860EACF811179C1109129071F778091A0
:102B5000E3008078812B8093E3008091E800877FF9
:102B60008093E8000E94B9048091E80080FFFCCFC8
:102B70008091E30080688093E30082E0111183E09C
:102B8000809325075AC18058823008F056C12091A1
:102B9000290730912A072C3DE3E03E07A1F583E0A9
:102BA0008A838AE289834FB7F894DE01139620E086
:102BB0003EE051E2E32FF0E050935700E49120FF14
:102BC00003C0E295EF703F5FEF708E2F90E0EA3028
:102BD000C0F0C7968D939D932F5F243159F74FBF57
:102BE0008091E800877F8093E8006AE270E0CE0180
:102BF00001960E946B058091E8008B778093E80036
:102C00001CC1C096E7CF80912B0790912C07432FD2
:102C100055274330510509F44AC078F54130510534
:102C200009F485C08BE590E0E3E4F7E0423051051C
:102C300009F003C12091E800277F2093E80020914C
:102C40002D0730912E078217930708F49C0140E06E
:102C50002115310509F070C041116EC08091E80066
:102C600082FDC9CF80912507882329F2853019F28A
:102C70008091E80083FFF2CFBECF4132510509F4C5
:102C800047C04232510509F0D8C08330910508F0A1
:102C9000D4C0FC01EE0FFF1FEB57FE4F0190F081F7
:102CA000E02D8E579E4FDC018C9190E01DC03327A4
:102CB00021303105E9F02115310579F02230310557
:102CC000F9F02330310509F0B8C0E0EBF7E0E4910A
:102CD0008E2F90E0E0EBF7E007C0E6E0F8E0E4914B
:102CE0008E2F90E0E6E0F8E0009709F4A6C0A2CFAE
:102CF000E4EFF7E0E4918E2F90E0E4EFF7E0F4CF1B
:102D0000EEECF7E0E4918E2F90E0EEECF7E0ECCF04
:102D10008330910508F091C0880F991FFC01E55799
:102D2000FE4F0190F081E02D89E090E083CF82E1B9
:102D300090E0EEE9F7E07ECF80912507882309F443
:102D40005ACF853009F457CF8091E80083FD53CFE7
:102D50008091E80082FD82CF8091E80080FF78CFEB
:102D60009091F3008091F2002115310519F088301F
:102D7000910550F041E0089709F040E08091E800AB
:102D80008E778093E80064CF44914093F1003196B0
:102D9000215031090196E8CF803809F04EC080916A
:102DA000E800877F8093E800809126078093F100F8
:102DB00092CE811142C0109129071230F0F5809116
:102DC000E800877F8093E800109326070E94B904EB
:102DD000112311F084E005C08091E30087FDFACF54
:102DE00081E08093250742E061EC81E00E94D804F5
:102DF00042E261EC84E00E94D80442E261EC82E0AD
:102E00000E94D80442E260EC83E00E94D8048091E2
:102E1000250713C080912907813079F481E0933030
:102E200009F080E0809324071092E9008091E80087
:102E3000877F8093E8000E94B9048091E80083FFB7
:102E40000AC08091E800877F8093E8008091EB00C2
:102E500080628093EB00AA960FB6F894DEBF0FBE97
:102E6000CDBFDF91CF911F9108951F920F920FB6A2
:102E70000F9211242F933F934F935F936F937F9300
:102E80008F939F93AF93BF93CF93DF93EF93FF9372
:102E9000D091E900DF708091EC00C82FC17080FDF7
:102EA000C0E81092E9008091F000877F8093F000E5
:102EB00078940E9461141092E9008091F00088607B
:102EC0008093F000CD2BCF70C093E900FF91EF917C
:102ED000DF91CF91BF91AF919F918F917F916F9132
:102EE0005F914F913F912F910F900FBE0F901F90C8
:102EF0001895E1E3F6E0128E138E8FEA90E091834D
:102F0000808325E0248F88E893E1938382838AE09D
:102F100090E09583848344E150E05783468368E0E2
:102F200070E071876087938782874EE150E0558714
:102F300044879787868740E550E0518B408B738BA1
:102F4000628B68E270E0758B648B62E370E0778B74
:102F5000668B68EC70E0718F608F158E978F868F0F
:102F600051A340A322A30E948E0E0E9456141092D9
:102F70004A051092490590E080E00E94490F0C94A8
:102F8000370D5F926F927F928F929F92AF92BF9216
:102F9000CF92DF92EF92FF920F931F93CF93DF9325
:102FA000CDB7DEB76E970FB6F894DEBF0FBECDBFBC
:102FB000C0901601D090170181E090E09093170126
:102FC000809316018BEBE82E85E0F82E93ECA92E6A
:102FD00095E0B92E10E0450100E015C0F301259100
:102FE0003491452D602F812F0E94FA0E82E0680EE9
:102FF000711C5394E8E05E12F1CFF0E18F0E911C4A
:103000000F5F043019F03401512CE8CFF7012591FE
:10301000349140E060E0812F0E94D50EF701329696
:103020002591349141E060E0812F0E94D50E84E02B
:10303000E80EF11CE0E4AE0EB11C113011F011E00D
:10304000CACF0E9479171A8219821C821B821E82A3
:103050001D8218861F8288EC90E09A87898703ED8D
:1030600010E04AE050E0B801CE0101960E94BD395F
:10307000065F1F4F0332F1E01F0799F77E018BE0D7
:10308000E80EF11C8AE0F70111928A95E9F74AE00F
:1030900050E0B801C7010E94BD39065F1F4F0337DA
:1030A000F1E01F07A1F77E0185E1E80EF11C8AE03F
:1030B000F70111928A95E9F78FEF9FEF9A8F898F29
:1030C00087E08E8F4AE050E0B801C7010E94BD3909
:1030D000065F1F4F033CF1E01F07A1F7D0921701D5
:1030E000C09216016E960FB6F894DEBF0FBECDBF2C
:1030F000DF91CF911F910F91FF90EF90DF90CF90D4
:10310000BF90AF909F908F907F906F905F90089549
:1031100080E00E94310F60E086E290E00E949939E1
:103120000E94C1170E94C50E81E00C94310F69EE18
:103130007EEF90E080E00E94B73960E082E090E0AE
:103140000E94993960E083E090E00E9499391092E2
:103150002F0760E084E090E00E94993960E082E20D
:1031600090E00E94993960E085E090E00E949939F2
:1031700060E086E090E00E9499396FEF87E090E090
:103180000E94993940E050E0BA0188E090E00E9446
:10319000AB3960E08DE090E00E94993940E050E06A
:1031A000BA0188E190E00E94AB3960E087E190E0ED
:1031B0000E94993940E050E0BA018CE190E00E9411
:1031C000AB3970E060E080E290E00E94B73940E007
:1031D00050E0BA0188E190E00E94AB3980E00E94A3
:1031E000310F0E94881840E050E0BA018FE090E073
:1031F0000E94AB3940E050E0BA0183E190E00C94CA
:10320000AB39CF92DF92EF92FF928FEF9FEF443076
:10321000510508F46AC0FB01C080D180E280F380D0
:103220000E94561480914905C0FA80F9B701A601A1
:10323000769567955795479540FB81F9B701A601AB
:1032400022E076956795579547952A95D1F740FBEB
:1032500082F9B701A60133E07695679557954795B2
:103260003A95D1F740FB83F9B701A601E4E07695E2
:10327000679557954795EA95D1F740FB84F9B701D3
:10328000A601F5E07695679557954795FA95D1F79C
:1032900040FB85F9B701A601A6E07695679557959D
:1032A0004795AA95D1F740FB86F9B701A601B7E08B
:1032B0007695679557954795BA95D1F740FB87F96D
:1032C0008093490580914A05D0FA80F9D1FACC243F
:1032D000C0F8C0FA81F980934A0580914905909120
:1032E0004A050E94490F90E080E0FF90EF90DF9048
:1032F000CF900895882321F00E94FC0A0C94EF12CD
:103300000895882339F090913107982B90933107D5
:103310000C94EF120895882321F00E94030B0C9463
:10332000EF120895882321F00E940A0B0C94EF12EB
:103330000895882309F452C0823871F40E9405066A
:1033400081FF4CC089E30E942A0B0E94EF1289E39F
:103350000E941D0B0C94EF12833859F40E9405064D
:1033600080FF3CC083E50E942A0B0E94EF1283E598
:10337000EFCF843859F40E94050682FF2FC087E4FE
:103380000E942A0B0E94EF1287E4E2CF9CEF980F75
:10339000913AF0F290E2980F983050F4877091E0F3
:1033A00001C0990F8A95EAF7892F0E94030BD2CFAB
:1033B0009BE5980F933020F490E080E00C94EF05AB
:1033C00098E5980F973120F490E080E00C94D905AF
:1033D000803F20F00E948A070C94DA110895FF9232
:1033E0000F931F93CF93DF93F82E00912F06109128
:1033F00030060115110509F449C010922E061092ED
:103400002D0610922A0610922B06D8011696CD9101
:10341000DC919E013A9521153F4108F4D07ED1E020
:10342000C11101C0D0E0D8011996ED91FC911A9715
:10343000309731F01B966D917C9180E00995D823EF
:10344000DD2339F08CEF8C0F813A38F58C2F0E94F8
:103450001D0BFF2099F0E0912F06F091300680853A
:1034600084FD0CC080912C06882341F080819181DD
:103470009C0121503109253A3D45A8F00E94EF12E8
:103480001092300610922F0610922C06C801DF9180
:10349000CF911F910F91FF9008950E94EF128C2FF2
:1034A0000E949919D6CF0E941106E8CFCF93DF93DF
:1034B000EC010E949919CE010E94E50B9E01205E4D
:1034C00031092830310510F0CD2B21F4DF91CF9157
:1034D0000C948B19DF91CF910C947A19CF93C82F4C
:1034E000882309F48CC08238C1F40E94050681FD4E
:1034F00086C089E30E942A0B0E94EF122FEF81EE13
:1035000094E0215080409040E1F700C0000089E342
:103510000E941D0BCF910C94EF128338A1F40E94EE
:10352000050680FD6CC083E50E942A0B0E94EF1205
:103530002FEF81EE94E0215080409040E1F700C0F1
:10354000000083E5E5CF8438A1F40E94050682FDE2
:1035500056C087E40E942A0B0E94EF122FEF81EEE3
:1035600094E0215080409040E1F700C0000087E4E3
:10357000CFCF8CEF8C0F813A68F4E6E9F1E08191CE
:10358000C817B9F121E0EC39F207C9F78C2F0E9476
:103590002A0BC0CF80E28C0F883048F4C77081E0DE
:1035A00001C0880FCA95EAF70E940A0BB3CFEBE57A
:1035B000EC0FE33040F4F0E0E35DFE4F808190E0FB
:1035C000CF910C94EF05E8E5EC0FE73150F4F0E013
:1035D000EE0FFF1FE05DFE4F80819181CF910C9433
:1035E000D905C03F60F08C2F0E94A508CF910C94A4
:1035F000DA118C2F0E941D0B0E94EF12C7CFCF91C2
:1036000008951F93CF93DF93182FC0915106D09147
:103610005206893321F0C0914F06D0915006812F78
:103620000E946E1A209731F4812FDF91CF911F9164
:103630000C9499198FE99FE00197F1F700C0000001
:103640002197F0CF0F931F93CF93DF93C42FD22FE7
:10365000FC0182818823A1F0409357060E94CE117D
:103660009093560680935506C77081E001C0880F7D
:10367000CA95EAF7DF91CF911F910F910C9492199F
:1036800010915706141339C0809155069091560633
:103690000E94BF112091490630914A068217930774
:1036A00060F5C0E2CD0F1D17B9F080E2810F8830C0
:1036B00040F4177081E001C0880F1A95EAF70E9464
:1036C0008B19C83048F481E09D2F977001C0880F96
:1036D0009A95EAF70E949219802F0E94011BC83028
:1036E00098F4D77081E001C0880FDA95EAF7DF918E
:1036F000CF911F910F910C948B19C77081E001C07D
:10370000880FCA95EAF7F3CFDF91CF911F910F9100
:103710000895AF92BF92CF92DF92EF92FF920F93F4
:103720001F93CF93DF93EC018AE0A82E28812223F8
:1037300009F48CC02130C9F599818A81913021F436
:1037400022960E94011B05C0923029F422960E9405
:103750006E1A2196EBCF933021F422960E9499198C
:10376000F8CF943011F02196F4CF229630E020E08B
:10377000AE014F5F5F4F8053990B8A30910550F037
:103780002150310930F38FE99FE00197F1F700C034
:103790000000F6CFA29EB001A39E700D11249C01E3
:1037A000260F371F8981EA01E3CFE22FF0E0E154D1
:1037B000FE4FB490822F86958695869590E0FC0109
:1037C000E155FE4FE4902770F12C022E02C0F594D3
:1037D000E7940A94E2F731E0E322FF24FC01E1568A
:1037E000FE4FC490D12C022E02C0D594C7940A94E7
:1037F000E2F731E0C322DD24FC01E157FE4F0491E2
:1038000010E002C0159507952A95E2F7017011277F
:10381000E114F10419F081EE0E946E1AC114D10472
:1038200019F086EE0E946E1A8B2D0E94011BCD2886
:1038300019F086EE0E949919EF2819F081EE0E9486
:103840009919012B09F485CF8CE27BCFDF91CF91C1
:103850001F910F91FF90EF90DF90CF90BF90AF90AE
:103860000895CF93DF93EC010E94E50B9E01205E4B
:1038700031092830310510F0209739F40E9492194F
:103880008C2FDF91CF910C946E1A0E948119F8CF82
:10389000662329F0209131072260209331079C0193
:1038A0003056211540E2340720F0305E21153041BA
:1038B00008F499270C94311CDF92EF92FF920F933A
:1038C0001F93CF93DF937C018B01D42E8091220133
:1038D00082FF8CC0C0917405D0917505CE15DF05AF
:1038E00021F0E114F10409F081C0809122018B7F65
:1038F0008093220181FD73C08091720590917305C0
:10390000A801481B590B81E0209120013091210131
:103910004217530708F480E08170F82E809122014D
:10392000F0FA81F980932201FE0183E0F695E79594
:103930008A95E1F7EE71FF27EE5AFA4F2081318127
:10394000AE014F70552781E090E002C0880F991FAB
:103950004A95E2F7FF2009F444C0822B932B918310
:1039600080838091510581FF08C080912201806190
:103970008093220182E00E94030B8091510585FF14
:1039800008C08091220180628093220180E20E941F
:10399000030B6F2DCE010E94481CDD2031F0809179
:1039A0004C0685FF02C086FF3BC080914F06909178
:1039B00050060E942D0D80917405909175059C0113
:1039C0003056211540E2340720F0305E2115304199
:1039D00008F499270E94561A0E94AC131DC081E07A
:1039E0009BCF8095909582239323B9CFC7019927C8
:1039F00097013056211540E2340728F0305E21153A
:103A0000304108F0C7010E94561A809174059091C8
:103A100075058E159F0501F31093730500937205CC
:103A2000DF91CF911F910F91FF90EF90DF9008955C
:103A30002F923F924F925F926F927F928F929F92BE
:103A4000AF92BF92CF92DF92EF92FF920F931F93AC
:103A5000CF93DF93CDB7DEB769970FB6F894DEBF8B
:103A60000FBECDBF942F498B252F5A8B6B8B7C8B30
:103A70008D8B4C895D89622F892F0E94820681116E
:103A800009C080919F019091A00101969093A0019F
:103A900080939F018B898111109231071D861E86AC
:103AA0001F86188A85E0FE017196DE011996019045
:103AB0000D928A95E1F780914A0582FD1EC08091A2
:103AC000330690913406892BC1F00E94CE112091CB
:103AD000F8013091F901821B930B2091330630914C
:103AE00034068217930720F08091FA0182FFF5C116
:103AF0000E94D51281110E94F10A4C855D856A856C
:103B000089850E948206811111C061E0CE0109966B
:103B10000E94430E6C018B8527EFC2162CE5D2065E
:103B200081F4882321F181E08093230129853A855E
:103B30004B855C856D857E858F8598890E94722D69
:103B4000C5C038EFC3163CE5D30629F4882379F0C5
:103B50000E944B2EEBCF49EFC4164CE5D40639F446
:103B6000882329F0809123018111F2CFDCCF0AED67
:103B700015E0512CB12CA12C22242394312C2EEFB2
:103B8000422EF8014081518188248A94982C20E0AB
:103B9000822F90E0FC01EE0FFF1FE40FF51F608104
:103BA00071816115710531F0C616D70609F44C0113
:103BB0002F5FEECFF12CFFEF8F169F0609F448C060
:103BC000F8014481F09023018F2D411180E0F82FFE
:103BD000F170FF2EF801E58086819B85992309F419
:103BE0000CC1FF2009F409C1609047067090480697
:103BF000E11012C0A10101C0440F8A94EAF7842B9E
:103C0000868380917605909177058615970520F437
:103C10007092770560927605C10102C0880F991FE6
:103C20002A95E2F70197F80126812817190681F4F1
:103C300080911C0690911D06009709F460C00E94B7
:103C4000BF116816790608F05AC021E0F8012483F4
:103C50005F28FFEFAF1ABF0A095F1F4F28E0A216C7
:103C6000B10409F08ECF8B85882309F421C155203A
:103C700009F41EC10E94CE1190931D0680931C066C
:103C800080917905883010F591E0980F909379052F
:103C900098E0FE013996DE01119601900D929A95F9
:103CA000E1F73CE0839FC001112486589A4F28E039
:103CB000FE013196DC0101900D922A95E1F72FEF7C
:103CC0003FEFFC0131872087D386C28669960FB605
:103CD000F894DEBF0FBECDBFDF91CF911F910F9142
:103CE000FF90EF90DF90CF90BF90AF909F908F901C
:103CF0007F906F905F904F903F902F9008958091AC
:103D00001A0650911B06982FF0E0E0E0851314C0CE
:103D100090931A06E017F10709F49ACF90E0FC019E
:103D2000EE0FFF1FEE5EF94FB182A0820196837005
:103D3000992780931B068CCF682E712CF301EE0F10
:103D4000FF1FEE5EF94F2081318147E0429FD00195
:103D5000439FB00D1124A652BA4F6D917C911197DB
:103D6000798F688F40E020E030E0E32FF0E0EE0F45
:103D7000FF1F688D798DE60FF71F80809180811479
:103D80009104E1F0F8010190F081E02DFF8BEE8BC2
:103D900020E005C08616970609F44F2D2F5FE22F0D
:103DA000F0E0EE0FFF1F6E897F89E60FF71F60813D
:103DB00071816115710571F73F5FD7CF4423D1F051
:103DC000F801231708F0FD0121E024830E171F07D7
:103DD00021F490931A06F42E3BCF981305C0AE172A
:103DE000BF0711F49F5F937093012F5F3F4F822FA6
:103DF00083708CCFF0E0E0E0F7CF90E0E1101FC0DF
:103E0000B10102C0660F771F2A95E2F79B0121508E
:103E100031098217930731F4442309F447C0C501DF
:103E20000E948D06C10101C0880F8A94EAF7982F7D
:103E30009095F801868189238683FE2C09CF9C0109
:103E4000082C02C0359527950A94E2F7A901417024
:103E50005527BC016150710986239723892B11F5E1
:103E6000452B01F1F80182819381892BC1F01B82DE
:103E70001C821D821E8249824A820E94CE1181606C
:103E8000582F9D838C83F801828193818F8398873B
:103E900029813A814B816D817E810E94722DF801CA
:103EA0001582C0CFF22FF170EF2EBCCFEF2CBACF1E
:103EB00090911A0680911B06981731F00E94592E96
:103EC000552009F433CE02CF0E94E92D10921D0631
:103ED00010921C060E94BB06F3CF82E00E940014E1
:103EE00007CECF93DF9300D000D00F92CDB7DEB7CF
:103EF0009093460580934505811520E2920748F48A
:103F00000F900F900F900F900F90DF91CF910C9426
:103F1000561A8EEF89838A831B820E94CE1181609C
:103F2000782F9D838C8349815A816B818D810F907D
:103F30000F900F900F900F90DF91CF910C94181D60
:103F40000F931F93CF93DF938C01EB0160E674E036
:103F50008C2F0E94560F892BA1F480914F069091CF
:103F600050060E942D0DDD27C85ADB4F8881F801CD
:103F700010821882833009F148F4813059F0823080
:103F800081F0DF91CF911F910F9108958430D1F08E
:103F90008530B9F78091600490916104009789F3AE
:103FA00006C08091620490916304009799F3DF91B9
:103FB000CF911F910F910C94711F80916404909187
:103FC0006504F3CF8091660490916704009779F7B8
:103FD00020916004309161048091620490916304A7
:103FE00021153105D9F2009711F7C901E0CFCF9320
:103FF000DF9300D000D00F92CDB7DEB79093460587
:1040000080934505811520E2920748F40F900F90A8
:104010000F900F900F90DF91CF910C94311C8EEF89
:1040200089838A8381E08B830E94CE118160782FFF
:104030009D838C8349815A816B818D810F900F9074
:104040000F900F900F90DF91CF910C94181DBF929D
:10405000CF92DF92EF92FF920F931F93CF93DF9354
:10406000B82EC090300780912F07C82AC7E0D0E053
:10407000D12CF12CE12CD701C6010C2E04C0B69531
:10408000A795979587950A94D2F780FF1FC04B2D6F
:1040900060E08C2F0E945C0D8C0181309105B1F0A5
:1040A0000E94F71F8FE39CE90197F1F700C0000021
:1040B000C8010E94711F81E0DF91CF911F910F9184
:1040C000FF90EF90DF90CF90BF900895219798F6E2
:1040D0004B2D60E080E00E945C0DEC010E94F71F18
:1040E0008FE39CE90197F1F700C00000CE01E1CF1A
:1040F000CF93DF93EC010E94F71F80914F069091C0
:1041000050060E942D0DCE01DF91CF910C94711FAE
:104110000F931F93CF93DF938C01862F60E674E09B
:104120000E94560F892BC9F4C0916004D09161049C
:10413000209799F0F8018081833069F4CE010E94C4
:104140007820CE010E947820CE01DF91CF911F917F
:104150000F910C9478208430B8F7DF91CF911F91A4
:104160000F9108950F931F93CF93DF938C01EB0171
:1041700060E674E08C2F0E94560F892B09F064C012
:10418000FE01FF27D8018C91E85AFB4F8130D9F40A
:1041900019969C911997992311F080830CC01A9657
:1041A0009C919923D1F382E0808380916204909165
:1041B00063040097D9F480916004909161040097A2
:1041C00009F442C013C08230E9F519968C91199711
:1041D00081112DC01A968C9181110EC083E08083CD
:1041E0008091640490916504009719F1DF91CF915B
:1041F0001F910F910C94F71F84E0808380916604D7
:1042000090916704009791F7809160049091610408
:104210000097F9F00E9478208091620490916304E5
:10422000009721F78091600490916104DFCF85E0D1
:1042300080838091600490916104009729F00E942E
:104240007820F0CF86E08083DF91CF911F910F918E
:1042500008958091620490916304B1CF2F923F92B0
:104260004F925F926F927F928F929F92AF92BF9286
:10427000CF92DF92EF92FF920F931F93CF93DF9332
:1042800000D000D000D00F92CDB7DEB77C01DC01AA
:1042900013964D915C91149711966C9111978C9196
:1042A0000E9482068111CBC061E0C7010E94430ECB
:1042B0008C01F7018281811161C0D70112968C9126
:1042C00081119BC000313FE5130709F473C101312F
:1042D0004FE5140709F472C16801E7E5DE1AFFEF44
:1042E000CF16D10409F060F560E674E08C2D0E94D1
:1042F000560F892B29F586E18C9DF0018D9DF00DDF
:104300001124E65AF94F8681813009F059C1809114
:10431000600490916104892B99F0809162049091DE
:104320006304892B69F08091640490916504209165
:10433000660430916704822B932B892B09F44AC1C0
:10434000F7015280552009F457C10F35FDE51F07CD
:1043500009F44EC100362DE5120751F00E353DE54A
:10436000130709F049C180910001882309F440C175
:104370001092000180E00E94EF1951C080910D0160
:1043800090910E01019609F498CFEAE5CE2EE6E071
:10439000DE2EB12CA12C9924939480910D01909143
:1043A0000E018A159B050CF488CFF60186818823BF
:1043B000E9F0818592850817190739F4809158062C
:1043C000909159060817190789F0D6011F969C92FB
:1043D0001F971C961C930E931B97C6010E948B136C
:1043E000C60106960E94461310923107BFEFAB1A22
:1043F000BB0AE6E1CE0ED11CD0CFC80182519F4549
:10440000409710F00C94462A8FEF93E00E948B396E
:104410007EEED72ED00E03EC11E08823A9F1809117
:10442000FA01877061F0D70112968C91882339F0D8
:1044300080914A0582FD03C082E00E940014279605
:104440000FB6F894DEBF0FBECDBFDF91CF911F91A5
:104450000F91FF90EF90DF90CF90BF90AF909F9023
:104460008F907F906F905F904F903F902F90089526
:104470000115F4E01F0799F2C8010E948B398111E0
:1044800001C0DA940F5F1F4FD110F2CF19821A8248
:104490001B821C8299249A9468012FEFC21AD20AB7
:1044A000C8010E948B3989831A82882309F4B7CF07
:1044B000813009F073C0580132E0A30EB11CC6016F
:1044C0000E948B39C82E8A83882309F4A8CFC5019E
:1044D0000E948B39D82E8FEF8C0D833068F45801F1
:1044E00043E0A40EB11CDB82DD2021F0CE01019659
:1044F0000E94891B8501D0CF8BEF8C0D833030F566
:10450000C8010396DB825C01DD20A1F3580154E071
:10451000A50EB11C0E948B398C83882359F38B81A3
:104520009C818130AFEF9A0710F0982F8827B6E072
:10453000CB1631F0E7E0CE1631F00E947820DACFCA
:104540000E94F71FD7CF0E94711FD4CFF4E0CF1283
:10455000D1CF580124E0A20EB11CC80103960E94DD
:104560008B39DD2009F45BCF882309F458CF8150C3
:10457000990B989E9001999E300D11244D2D41501C
:10458000550BCA01820F931F019708F4B3CFAFE90F
:10459000BFE01197F1F700C00000F6CFCE01019601
:1045A0000E94891B5601A6CF81E00E9431140E940F
:1045B000E91335CF81E00E94F413F9CF82E0FBCFFD
:1045C000823009F0BDCE8091640490916504892BFE
:1045D00009F4B6CE26E12C9DC0012D9D900D11242D
:1045E000865A994FDC0150961C920E948B13A8CEDC
:1045F00081E08093000113CF80910001882309F4AA
:104600006DC6480140EE841A9108409005028091E1
:10461000F701482A80915105482A58E085169104EF
:1046200008F086C098012770332781E090E001C030
:10463000880F2A95EAF7552009F477C0482AD70150
:104640008D919C910E946D0B21E030E0390102C0F8
:10465000660C771C8A95E2F7E0912F06F091300600
:10466000FF83EE8320909C0130909D011D822D815F
:10467000E22FF0E0EE0FFF1FE554FB4FC080D1802A
:10468000C114D10409F4EDC6411005C0D60112963B
:104690008C91811187C0F601838190E0862197215A
:1046A000892B09F47FC08085982F977009F487E0E3
:1046B000F8E08F16910408F055C0552009F44EC05B
:1046C00086958170882309F46DC0D601AD90BC90A9
:1046D0000A151B0519F4552009F464C0EE81FF8109
:1046E000CE16DF0609F45EC0D6011D96ED91FC9151
:1046F000309721F08081882309F454C0642DC601CD
:104700000E946206882309F44DC00A151B0509F0B2
:10471000CAC60115110509F4CBC65110CBC6A214A7
:10472000B30409F03FC0512CC5C68095482287CFFD
:10473000552009F47FC610939D0100939C010E94AF
:10474000CD056093260670932706809328069093E4
:10475000290610922E0610922D0671CF82FB882713
:1047600080F9B0CF5520F1F08170ACCF0E9499193B
:10477000BFC60497813A910548F48A2D0E942A0BFE
:10478000552009F4ABC50E94EF1249CE0E94EF12EA
:104790008FE39CE90197F1F700C000008A2D0E9489
:1047A0006E1AEECF9D819F5F9D8361CFFC012081BA
:1047B00031810217130709F08AC551108AC510927A
:1047C0002C0680E060C6882309F4D7C5FA018189E8
:1047D000882309F4D2C5C501805A994F0E94461317
:1047E000CCC580912201816080932201F4C5809123
:1047F00022018E7F809322010E94AC13ECC5809130
:1048000022018F7E013E110531F0053E1105C9F4EC
:10481000809122018F7D809322018091220180FF6F
:10482000E9C5D70112968C910832110528F50E3191
:10483000110508F074C00430110580F58111D6C54A
:10484000D9C5C8019056811540E2940720F0905ECA
:104850008115904110F78091220182FFCBC5809194
:104860004E0681FDC7C522E132E040E0B60190E08E
:1048700080E00E945C1CBEC50933110558F40D325E
:10488000110518F40B321105C9F690914C0692FDF2
:10489000D5CF08C004361105C1F3D0CF90914C0696
:1048A00094FDCCCF882309F4A1C09091510580914B
:1048B0000502282F292B322F3D7FB1F1109275056B
:1048C0001092740530914C0631FD2EC0F80143E082
:1048D000F695E7954A95E1F7EE71FF27EE5AFA4F04
:1048E00098012F70332781E090E002C0880F991F54
:1048F0002A95E2F780959095208131818223932338
:104900009183808360E0C8010E94481C8091050269
:104910008D7F0E94C11282E00E94001480CD909190
:104920004C0693FD8BCFBECF38E0F701A2E1B2E099
:1049300001900D923A95E1F710921402109216022E
:1049400010921502A0907405B09075050A151B050C
:10495000B1F530914C0635FF32C04091220141FB48
:10496000992490F841FF02C036FF29C0409172059A
:1049700050917305B601641B750B40914906509127
:104980004A0664177507D8F491FF08C08091220188
:1049900080618093220182E00E94030B8091510587
:1049A00085FF08C08091220180628093220180E20D
:1049B0000E94030B692DC5010E94481C30CD9091C7
:1049C000220121FB91F9909322018D7F0E94C11257
:1049D0001093750500937405D0927305C09272050B
:1049E0008091220184608093220195CF970140E05D
:1049F000B601C8010E945C1C12CD053F4CE51407AE
:104A000009F462C008F45AC0063F8CE5180709F49F
:104A100061C0D70112963C91332309F49DC51092D1
:104A200057060330BDE51B0708F060C00A3FECE500
:104A30001E0730F4C80182509C45449708F060C0BE
:104A40000E946A0E90934A058093490501313CE526
:104A5000130709F465C108F0E2C009305CE51507E9
:104A600009F44CC108F0AFC005309CE5190709F402
:104A70003DC108F095C00330BCE51B0709F42CC10B
:104A800008F030C180914905816002301C4509F46D
:104A900026C18091490590914A050E94490F0E94C4
:104AA0005614BDCC07E225EE45EE68ED7CE5BDC4AD
:104AB00006E221EE40EE63EF7CE5B7C407E225EEA7
:104AC00044EE64EF7CE5B1C406E221EE42EE65EF10
:104AD0007CE5ABC407E225EE46EE66EF7CE5A5C4B7
:104AE00008E221E045EE69ED7CE59FC40136FDE575
:104AF0001F0709F4A5CF053A2DE5120709F4A0CF49
:104B000006318CE5180709F42BC50A358DE5180721
:104B100009F45CC108F038C10115ACE51A0709F4C5
:104B200045C10E3D1C4509F44EC1F70186819781B0
:104B3000009709F44FC10E946909182F092FF70146
:104B4000D280C580C2943FE0C3228091FA01877071
:104B5000C1F0AD2CDD20B1F0892F807F803421F0B1
:104B600080E2810F883068F080914A0582FD09C09B
:104B700082E00E9400148091FA018770AA24A39415
:104B80008111A12C902E92942FE09222FBE0F91536
:104B900008F4ADC1E92DF0E0EF51F64C0C94483922
:104BA00080914905806207302CE5120709F497C00F
:104BB00080914905806108301C4508F490C08091BF
:104BC000490580648CC0809149058B7F0D304CE590
:104BD000140709F484C080F40B308CE5180709F43D
:104BE00093C0809149058C600C301C4508F477C057
:104BF000809149058D7F73C0809149058F7E0F306C
:104C0000ACE51A0709F46BC080914905877F003134
:104C10001C4508F464C0809149058F7D60C00D3F3C
:104C2000ECE51E0709F478C050F505312CE51207B4
:104C300009F480C098F480914905837F03314CE5E5
:104C4000140709F44CC008F46FC00E9456149091E8
:104C50004905892F97FB87F9805841C00B3F8CE5A8
:104C6000180709F447C008F053C080914A058160D5
:104C70000A3F1C4509F00DCF80934A050ACF013049
:104C8000BDE51B0709F462C0B8F480914A058C7F2A
:104C90000F3FFCE51F0781F380914A0583600115F2
:104CA0001D4550F380914A05982F909591708E7F05
:104CB000892B90FB81F9E0CF01363DE5130709F41C
:104CC0004BC0053A4DE5140709F44DC002301D45AF
:104CD00009F0DFCE60E03BC080914905826080939F
:104CE0004905D7CE809149058460F9CF8091490567
:104CF0008860F5CF80914A058260BECF0E9456142D
:104D0000809149058068EBCF809149058E7FE7CF80
:104D100080914A058E7FB0CF80914A058D7FACCFC0
:104D2000809149058F7BDBCF0E9456148091490505
:104D30008F77D5CF8091490582FB992790F921E0A3
:104D4000922790FB82F990FB83F9C9CF61E08EE056
:104D500090E00E9499399DCE90914905892F8F7ED0
:104D600094FF8061BCCF90914905892F8E7F90FF81
:104D70008160B5CF80919E01811104C089E20E94BB
:104D80001D0B01CD85E3FBCF0B35EDE51E0701F1D2
:104D90000C351D4509F0C9CE80914A0582FB882754
:104DA00080F991E089270E941C14BFCE0E945614FE
:104DB0002FEF34E34CE0215030404040E1F700C099
:104DC00000000E94090D0E94971829CB81E0EBCFCB
:104DD00080E0E9CF828100811181882369F0C801D8
:104DE0000E94D10DD82E682FC8010E949A0BB801DD
:104DF0008D2D0E94B50D9FCEC8010E946D0BD82E3F
:104E0000F6CF202F2F70B22E802F807F19F0B29412
:104E100090EFB922DD20A9F0BB2059F080E2810F8C
:104E2000883010F0111107C08B2D0E940A0B0E94D0
:104E3000EF12812F5AC080913107B82AB092310702
:104E4000F6CF812F0E949919BB2009F450C080E24F
:104E5000810F883010F0111104C08B2D0E94030BBC
:104E600003C08B2D0E94FC0A0E94EF1240C0302F1D
:104E70003F70B32E802F807F803219F0B29480EF84
:104E8000B822112321F1113009F4A4C0DD2009F466
:104E9000ADC0CC2009F47DC020E0D7014C91119623
:104EA0005C91119712966C91129713967C911397BF
:104EB00014968C910E941A0E80914E0681FDB9CFF6
:104EC000F701858180FFB5CF8F70858362C08091A7
:104ED0004A0582FF40C0DD20C1F1BB2029F08B2DA7
:104EE0000E940A0B0E94EF1280E00E946E1AA92D08
:104EF000A850BB0B149710F40E940506812F902F29
:104F00000E94CA0B8111C4C11092A00110929F018E
:104F1000AA20B1F08091FA0180FD12C0D70112964B
:104F20001C928595859585950E943114C7010E9434
:104F30002E218091FA018595859585950E94F4131F
:104F400060E0C7010E94430E7ACA80E00E9499196E
:104F5000BB2069F282CFDD2001F1C11004C0809135
:104F600005028B2917C041E0C41206C080910502DA
:104F70008B290E94C112BBCF80914D06823078F3FD
:104F8000C812EDCF0E94F10A8091F701B812B092D9
:104F9000F7018B2D0E949219AACFC11006C00E9462
:104FA000F10A8B2D0E948B19A2CF80914D0651E002
:104FB000C5120BC0823008F49ACF809151058B2125
:104FC00009F495CF0E94170BEACF823040F38C1181
:104FD000E6CF8DCF80915306DD2021F08C1508F4AB
:104FE00086CFD7CFC81608F082CFDBCFCC20C9F24E
:104FF0008091510690915206193321F080914F060D
:10500000909150060E942D0D812F0E9499196FCF0B
:10501000802F86958695837069F0813009F067CF7F
:10502000812F902F9370D11002C090E080E00E94F9
:10503000D9055DCF812F902F9370D11002C090E0E1
:1050400080E00E94EF0553CF812FDD2029F00E94E0
:10505000A5080E94DA114BCF0E948A07FACF802F51
:10506000837091F5D11043CF412F429546954770FB
:10507000440F440F812F8F70042E01C0880F0A94B3
:10508000EAF7212F207114FF07C02FE030E001C0A4
:10509000220F4A95EAF72095302F369536953370D2
:1050A000323069F050F440912F07313029F0822BD3
:1050B00084230E9452141BCF842B822BFACF282BDF
:1050C00080912F078227F5CF8695DD2011F0802F64
:1050D0008170882309F40BCF412F42954695477084
:1050E000440F440F812F8F70042E01C0880F0A9443
:1050F000EAF7212F207114FF07C02FE030E001C034
:10510000220F4A95EAF72095302F36953695337061
:10511000323069F050F440913007313029F0822B61
:1051200084230E94E513E3CE842B822BFACF282B15
:10513000809130078227F5CFF02FFF70BF2EDD2042
:1051400029F08F2F0E943114812F24CF812F0E94AC
:105150008B198B2D0E94F413CACE123F89F160F493
:10516000103FB9F0113F81F0DD2009F48CC0C1106F
:1051700060CE802F8F7128C0133F49F1143FA1F7F3
:1051800080914A0582FF2FC0802F8F71DD2011F39F
:105190001BC080915306DD2079F0C81608F0A7CE19
:1051A000202F2F7181E090E001C0880F2A95EAF747
:1051B000909130078927B5CF8C1508F498CEF0CFA1
:1051C000802F8F71D110C6CF0E94311490CE80E015
:1051D000DD2009F4A6CF81E0902F9F7101C0880FD8
:1051E0009A95EAF79ECF80914D068230A0F180918A
:1051F000F701DD20F1F00E94030B8091FA01877026
:10520000843041F40E94100B802F8F710E94F413A0
:10521000A12C6DCE80914D06C816D0F7202F2F718E
:10522000B22E822F0E94311463E08B2D0E943C1419
:10523000EFCF0E940A0B80914D06C81640F00E94E5
:10524000100B0E94170B64E0802F8F71EFCF81E06D
:105250000E940014DDCFDD2059F0302F3F71B32EB6
:10526000832F0E94311463E08B2D0E943C143FCEAB
:1052700081E00E94001441E04C1508F038CE82E035
:105280000E94001434CEC110B3CE802F8F7162CF34
:10529000DD2019F0C11038CE3BCEC11035CE20E054
:1052A000F701408151816281738184810E941A0ECD
:1052B00080914E0683FF28CE80919F019091A0019E
:1052C000029709F021CE812F0E94011B1DCE55208F
:1052D00029F0DC0118968C9185FF73CAC801975597
:1052E0008F3F910511F008F048C020910D013091D9
:1052F0000E012817390724F490930E0180930D01B5
:10530000F701228136E1389F5001399FB00C1124FA
:10531000A501465A594F6A01DA0150962C935097CD
:10532000928116968C911697992309F44CCA1A9675
:105330001C930E9319978F5F16968C930E94CE1133
:10534000F6019687858780910502878380913107D2
:1053500090915105892B80870190F081E02D309745
:1053600041F0D60154966D917C91C501805A994FB8
:105370000995109359060093580680914C0680FFBA
:1053800039C00E94CE116C01D70112968C918823EE
:1053900009F435CA8091220182FF08C022E132E07F
:1053A00040E0B60190E080E00E945C1C0B31BCE55F
:1053B0001B0709F416CA0C31ECE51E0709F417CADD
:1053C00090912201892F8E7F90FF81600A31FCE548
:1053D0001F0709F40FCAC8019056811520E29207F1
:1053E00028F0905E8115904108F017CA109275055B
:1053F00010927405033FBCE51B0709F459CB08F074
:10540000FCCA083DFCE51F0709F44CCB093D2CE51F
:10541000120709F465CB073D3CE5130709F0F9CA0B
:1054200006E221EE41EE67ED7CE5C7010E94221BFA
:105430000C940F2280919C0190919D0108171907EF
:1054400081F410929D0110929C01109226061092F8
:105450002706109228061092290610922E06109206
:105460002D0680912F0690913006009709F436CFD3
:10547000A8E08A16910408F099C9642D0E9462067A
:1054800081112CCF81E00E94EF1928CF0031FFE578
:105490001F0709F489C801312FE5120711F00C9498
:1054A000A02182E082C8A114B10409F038C9512CAE
:1054B000B12CA12C80E00E94EF19D0923006C0924E
:1054C0002F0681E080932C06F601858180932A06C1
:1054D00051100EC0AB2861F0F601808191819C01D2
:1054E00024503109213A310508F040C90E941D0BB2
:1054F000D6011696AD90BC90C5019A9581159F4135
:1055000010F4E0EEBE2277247394C5010197853A2A
:105510009D4508F0712CD6011996ED91FC911A97D2
:10552000309731F01B966D917C9181E0099578223E
:10553000772079F0F601868197810E94E50B8093B0
:105540002B06C501F8E08F16910408F012C90E94DD
:1055500011060E94EF1214C906311C4509F0E5CA74
:1055600080915105982F9A7A20914B0620FF04C014
:10557000482F447409F090E021FF04C0482F417186
:1055800009F090E022FF04C0482F487809F090E02D
:1055900023FF03C0827209F090E0332309F4EACBC1
:1055A00081E0911101C080E080939E0189E2911118
:1055B00085E30E942A0BE7C8CF92DF92EF92FF9219
:1055C0000F931F93CF93DF938091B201807F31F4CB
:1055D0008091AF01C091F60181110BC0DF91CF9195
:1055E0001F910F91FF90EF90DF90CF90089521963B
:1055F000C7708091B5018C1789F3F090AD01E090F0
:10560000AE01C090B001D090B101A6016E2D8F2DDA
:105610000E948206D0E08111EACF8E0183E0000F64
:10562000111F8A95E1F7F801EA54FE4F81818E112E
:10563000DECF80818F11DBCF82818111D8CFE380D3
:10564000F480EC18FD0860E08DEA91E00E94430EC2
:105650008091490690914A06E816F90640F6809135
:10566000B2018F7080618093B201F801E554FE4F62
:1056700080818F70806180838DEA91E00E942E216D
:10568000DF91CF911F910F91FF90EF90DF90CF901E
:105690000C94630B3F924F925F926F927F928F9226
:1056A0009F92AF92BF92CF92DF92EF92FF920F93B1
:1056B0001F93CF93DF93CDB7DEB765970FB6F894FE
:1056C000DEBF0FBECDBF8C0185E0F801DE01519633
:1056D00001900D928A95E1F7D8014C9011965C905B
:1056E00011971296EC9012971396CD90DC9060E093
:1056F0008DEA91E00E94430E8DEAA82E81E0B82E3B
:105700008090B0019090B101A4016091AE018091B0
:10571000AD010E9482068111CAC1F090AF01F6016D
:10572000E819F9094F0160E0FF2009F46DC1C501D6
:105730000E94430E6090490670904A063090B20174
:105740008614970408F013C14091B0015091B10143
:10575000B090AD01A090AE01832D807F6A2D09F03D
:10576000ADC08B2D0E948206FE2C81113BC0D8015A
:1057700011968C9111978A1135C08C918B1132C082
:105780002091B3013091B40116968D919C91281708
:10579000390741F5E11026C0832D8F708061809319
:1057A000B2018DEA91E00E942E218091B201F801B0
:1057B00085838F2D65960FB6F894DEBF0FBECDBFE3
:1057C000DF91CF911F910F91FF90EF90DF90CF90DD
:1057D000BF90AF909F908F907F906F905F904F9011
:1057E0003F900895F4EF6F16F1E07F0620F480916A
:1057F0004E0680FF21C0A601652D842D0E948206E1
:10580000811118C081E08E2580FF16C04E2D652DB8
:10581000842D0E94430B882379F08DEA91E00E9449
:105820002E2188E0EDEAF1E0DF011D928A95E9F78B
:10583000F12CBFCF80E0E8CFA601652D842D0E941A
:105840008206811124C081E08E25B82FB170CB2E45
:1058500080FF2BC04E2D652D842D0E94430BD82E2A
:10586000811123C0498A5A8A89899A890E94000E27
:10587000292F22952F70223060F0243088F49F70F9
:1058800061F0F8019581907F41F4FD2C92CF80E08A
:10589000DCCF9F7011F08823C1F3805E8830A8F3BD
:1058A000C8010E942E21DC2CF0CFEE2009F481CF1C
:1058B0008091B20181608093B201BACF8B2D0E949A
:1058C0008206811124C0D80111968C9111978A11FA
:1058D0001EC08C918B111BC02091B3013091B4017B
:1058E00016968D919C9117972817390781F4E1102E
:1058F0000EC015963C92C8010E942E2188E0F80146
:10590000ADEAB1E001900D928A95E1F752CFC8015E
:105910000E940C0E882339F1EE2029F18091B2010A
:105920008032A0F02091AD013091AE013A872987F5
:105930001B86DD86CC868E878091B3019091B40161
:10594000988B8F87CE0109960E942E2188E0F8015E
:10595000ADEAB1E001900D928A95E1F70E94DC2A50
:10596000FF24F39426CFC8010E942E21F9CF832D66
:10597000807F09F452CF9090AD018090AE014091AC
:10598000B0015091B101682D892D0E9482068111CC
:105990001CC0F8018181881118C08081891115C04F
:1059A0002091B3013091B40186819781281739077E
:1059B00061F4E1100AC03582C8010E942E2188E0FE
:1059C000D5011D928A95E9F7F4CEC8010E940C0E0C
:1059D000882349F2EE2039F28091B201803208F436
:1059E000B5CF2091AD013091AE013A8329831B825E
:1059F000DD82CC828E838091B3019091B40198872F
:105A00008F83CE010196A0CF8DEA91E00E94430ED4
:105A10008091490690914A068816990680F6FE2CD8
:105A2000EE2009F4A0CFE090AD01D090AE014091FE
:105A3000B0015091B1016D2D8E2D0E948206811111
:105A400028C0F80181818D1124C080818E1121C070
:105A50002091B3013091B4018681978128173907CD
:105A6000C1F480914E0682FD49CF9091B20190FD24
:105A700045CF907F09F442CF8091B2018583903F5A
:105A800009F439CF982F907F905F8F70892B858391
:105A900032CFC8010E940C0E811158CF8091B20103
:105AA00081608093B201C8010E942E2182CEEE2037
:105AB00009F459CFC8010E940C0EF82E882309F46E
:105AC00052CF88E0F801ADEAB1E001900D928A95DD
:105AD000E1F78091AD019091AE010E94000E0E940D
